:020000040800F2
:100000009883002059020008D31300081D1300082C
:10001000D1130008310400080F360008000000006A
:10002000000000000000000000000000A101000826
:10003000590C000800000000F5010008892800089C
:1000400073020008730200087302000873020008BC
:1000500073020008730200087302000873020008AC
:10006000730200087302000873020008730200089C
:10007000730200087302000873020008730200088C
:10008000730200087302000873020008730200087C
:10009000730200087302000873020008730200086C
:1000A000730200087302000873020008730200085C
:1000B000730200087302000873020008730200084C
:1000C000730200087302000873020008730200083C
:1000D000730200087302000873020008730200082C
:1000E000730200087302000873020008730200081C
:1000F000730200087302000873020008730200080C
:1001000073020008D5160008730200087302000885
:1001100073020008730200087302000873020008EB
:100120007302000873020008730200085B0A0008EB
:1001300073020008730200087302000873020008CB
:100140007302000873020008730200084D140008CF
:1001500073020008730200087302000873020008AB
:10016000730200087302000873020008730200089B
:10017000730200087302000873020008730200088B
:100180007302000873020008DFF810D000F0EEF8E8
:100190000048004751530008AFF3008098830020C7
:1001A0002A4B19680868B0E8F04F80F30988BFF35C
:1001B0006F8F4FF0000080F311887047000000003F
:1001C00006480068006880F3088862B661B6BFF32D
:1001D0004F8FBFF36F8F00DF00BF00BF08ED00E05F
:1001E000DFF80C00016841F470010160704700BF46
:1001F00088ED00E0EFF30980BFF36F8F134B1A68AF
:100200001EF0100F08BF20ED108A20E9F04F10609B
:1002100008B44FF0500080F31188BFF34F8FBFF345
:100220006F8F06F059F84FF0000080F3118808BC7A
:1002300019680868B0E8F04F1EF0100F08BFB0EC66
:10024000108A80F30988BFF36F8F70474000002049
:10025000EFF30580704700000648804706480047D6
:10026000FEE7FEE7FEE7FEE7FEE7FEE7FEE7FEE766
:10027000FEE7FEE79D280008890100082DE9F05FF0
:100280000546002092469B46884606468146402405
:100290001BE0284641464746224600F057F85346A1
:1002A0005A46C01A914110D311461846224600F012
:1002B0003EF82D1A67EB01084F4622460120002127
:1002C00000F035F817EB00094E41201EA4F101049F
:1002D000DFDC484631462A464346BDE8F09F40EA07
:1002E00001039B0703D009E008C9121F08C0042AB4
:1002F000FAD203E011F8013B00F8013B521EF9D29B
:10030000704730B50B46014600202022012409E049
:1003100021FA02F59D4205D303FA02F5491B04FABE
:1003200002F52844151EA2F10102F1DC30BD202A9D
:1003300004DB203A00FA02F1002070479140C2F13C
:10034000200320FA03F3194390407047202A04DB6E
:10035000203A21FA02F00021704721FA02F3D0403E
:10036000C2F120029140084319467047064C074DE0
:1003700006E0E06840F0010394E807009847103475
:10038000AC42F6D3FFF704FF541E0308741E0308A3
:1003900070B58C1810F8015B15F0070301D110F847
:1003A000013B2A1106D110F8012B03E010F8016B74
:1003B00001F8016B5B1EF9D12B0705D40023521EF7
:1003C0000DD401F8013BFAE710F8013BCB1A921C5F
:1003D00003E013F8015B01F8015B521EF9D5A1425D
:1003E000D8D3002070BD000010B505F0D9FC00F096
:1003F00075FE012802D105A003F00AF90B48006838
:1004000005F010FEBDE8104005F006BDB4B4BDA86F
:1004100046617446735F44656D6F5F5461736BC86A
:10042000CECEF1B3C9B9A6210D0A000024000020E8
:10043000FEE7000070B5374905460024086810F053
:10044000450FFBD0410702D50324042003E0C00779
:1004500004D00124204601F0D7F859E001F010F94A
:10046000A8422BD140F2FF5001F0CEF8002001F05D
:1004700029F9294908424BD0002801DA1C2070BD17
:10048000410001D5092070BD810001D50A2070BD51
:10049000C10001D50B2070BD010101D50C2070BD3C
:1004A000410101D50D2070BDC10101D50E2070BDE7
:1004B000010201D50F2070BD410201D5102070BD91
:1004C000810201D5112070BDC10201D5122070BD7D
:1004D000010301D5132070BD410301D5142070BD67
:1004E000810301D5152070BDC10301D5162070BD53
:1004F000010401D5172070BD410401D5182070BD3D
:10050000810401D5192070BD000701D51A2070BDE6
:10051000204670BD342C014008E0FFFD10B50B4AA9
:100520000024116811F0450FFBD0480702D50324C1
:10053000042003E0C80705D00124204601F064F838
:10054000204610BD40F2FF50F8E70000342C014077
:1005500070B50C46194906460025086810F0450F8D
:10056000FBD0410702D50324042003E0C00705D0D7
:100570000124204601F048F8204670BD01F080F8C3
:10058000B04212D140F2FF5001F03EF8002001F0DD
:1005900099F810F4604F03D0810404D5132070BD86
:1005A000000C208007E0410401D5102070BD00043C
:1005B00001D50F2070BD284670BD0000342C0140CD
:1005C0000A4610B5090602F07F0306D503EB830146
:1005D00000EBC10101F58E7105E002EB820100EB39
:1005E000C10101F55D7100248C700B70D2094A7055
:1005F00002F0CBFE002010BD70B50D460E0601F0D6
:100600007F0404EB840100EBC10102D501F58E717A
:1006100001E001F55D71ED090C704D708A60CB70E1
:1006200000D0CC80022B01D100220A7102F084FE9E
:10063000002070BD10B501F07F0404EB840100EBD5
:10064000C101C1F88833C1F880230023C1F88C337D
:1006500081F8753381F87443C37801F55D71012B1E
:1006600000D10A6114F0FF0F03D002F0BFFE00209A
:1006700010BD02F0F3FDFAE70069002261F30A12EF
:1006800001681143016070470A4610B5090602F07F
:100690007F0306D503EB830100EBC10101F58E71E9
:1006A00005E002EB820100EBC10101F55D7101245F
:1006B0008C700B70D2094A7002F080FE002010BDD1
:1006C00070B511F07F0404EB840100EBC1014FF021
:1006D000010581F81D5181F81C41C1F82821C1F89C
:1006E0002C2101F58E714FF00002C1E9053203D0D3
:1006F00002F07CFE002070BD02F0B0FDFAE70000C1
:100700002DE9F0410646002402F049FF074655E076
:10071000F80751D03069E1B20369426BCA4006EB79
:10072000810102F00102896943EAC2128D68154015
:10073000E9071AD00125426B05FA04F18A434263A6
:1007400006EB8400806985601F48E1B2006842685A
:1007500030469047F078012807D134B996F8110156
:10076000042802D1304602F0D5FD280704D506EB57
:100770008400082580698560E80604D506EB8400BE
:10078000102580698560680604D506EB8400402545
:1007900080698560A80704D506EB8400022580697E
:1007A0008560280608D52146304600F01DF906EB85
:1007B00084018020896988607F08641C002FA7D18C
:1007C0000120BDE8F0810000DC0000202DE9F041AF
:1007D0000546002402F0E9FE0746DFF8988043E072
:1007E000F8073FD0E1B2284602F0E5FE0646C00712
:1007F00025D005EB84000126416D8E60E978012942
:100800000CD1406D016904EB840005EBC000C1F31D
:100810001201D0F87C23511AC0F88C13D8F80000CC
:10082000E1B2026828469047E878012807D134B938
:1008300095F81101052802D1284602F06BFDB0079A
:1008400004D505EB84000226406D8660300709D58B
:10085000D8F8000081682846884705EB8401082005
:10086000496D88607F08641C002FB9D10120BDE864
:10087000F0810000DC00002070B50546C068816989
:1008800021F010018161E868066A06F00F0000EBB4
:10089000800005EBC004C6F3434004F55D740728EF
:1008A00021D2DFE800F0202004202020150047F6A8
:1008B000F070064217D0C6F30A1632462846E168A1
:1008C00002F081FEE0683044E060A069304409E055
:1008D000082205F2CC51284602F075FEA069C6F345
:1008E0000A110844A061E868816941F01001816142
:1008F000012070BD38B5044600208DF8000094F842
:1009000012018DF8000015480068416920468847AB
:1009100020698068E2684FF400615161A17AD1B129
:10092000C00718D094F81501012814D19DF80000D3
:10093000032810D1D4F80C01016841F001010160D5
:10094000D4F80C01016841F003010160044801681A
:1009500041F006010160012038BD0000DC000020EC
:1009600010ED00E070B504460069002501264168DD
:1009700021F0010141602946204602F0CDFD002012
:10098000FF2206E004EB80018B699A60496D8A6062
:10099000401C61788142F5D821694FF0FF308861B1
:1009A0002846216966F30F0066F31F40C86121697C
:1009B00045F00B004861216945F00B000861206992
:1009C000016821F4FE610160204602F0A3FCE168A9
:1009D0004FF4805048610348006801692046884709
:1009E000012070BDDC0000202DE9F0470E4601EB30
:1009F000860100EBC1048146D4E94C01401AD4F8C9
:100A0000241104F58E74814200D20846C01C870868
:100A100009EB860812E0451AA068A84200D20546F4
:100A2000E81C8708ABB2F2B24846E16802F0DBFD91
:100A3000E0682844E060A0692844A061D8F8180064
:100A4000806980B2B84205D9D4E90501814201D25A
:100A50000028E0D10120BDE8F08701F0C5BA000010
:100A6000074A904201D2074801E005481038064A7B
:100A70008B0001EA020101D5C160704781607047B7
:100A800010640240006002407D0F7D0F0029016864
:100A900002D041F0010101E021F001010160704745
:100AA0002DE9F043016821F001010160002101609E
:100AB00041608160C1600161212141613C493C4A42
:100AC0003D251039904202D18D60BDE8F083384A4F
:100AD0004FF474661832904201D18E60F5E7344AC3
:100AE0004FF474173032904201D18F60EDE7304AF5
:100AF0004FF0746C4832904202D1C1F808C0E4E76C
:100B00002B4B2C4A6033984201D1CA60DDE7284C58
:100B1000294B7834A04201D1CB60D6E7DFF8908032
:100B2000264C08F19008404501D1CC60CDE7DFF8B4
:100B300080804FF03D5908F1A808404502D1C1F826
:100B40000C90C2E71E49DFF878800839404501D192
:100B50000D60BAE71A4D1835A84201D10E60B4E70E
:100B6000174D3035A84201D10F60AEE7144D48351E
:100B7000A84202D1C1F800C0A7E7114D1049603565
:100B8000091FA84201D10A609FE70D4A78329042BE
:100B900001D10B6099E70A4A9032904201D10C6072
:100BA00093E7074AA83290428FD1C1F800908CE7B2
:100BB000106002403D000020400F002000003D205A
:100BC000106402400029016802D041F0200101E0D8
:100BD00021F02001016070470B0607D5436912B16F
:100BE00043F0800301E023F080034361802908D0B3
:100BF000002A026801F01E0101D00A4300E08A4386
:100C00000260704730B50368124ACC6813400A6826
:100C10002243D1E905452C432243CC6922430C6A87
:100C200022434C6A22438C6A22434C6B22438C6BD6
:100C300022431A430260426922F00703D1E90B24E0
:100C400022431A4342610A6942604A6882608968A5
:100C5000C16030BD3F801CF070470000F0B501213D
:100C600087B0084600F004FC0121102000F00CFCC5
:100C7000012500248DF806408DF8075002266802F1
:100C8000254F8DF8056000908DF804606946384660
:100C900000F0F8FAA80200908DF804606946384622
:100CA00000F0F0FA07220A21384600F027FB07225D
:100CB0000921384600F022FB4FF4E130ADF80C403A
:100CC0000290ADF80E40ADF81040ADF814400C2085
:100CD000124CADF8120002A9204601F037FE4FF485
:100CE000A06000F0A9FB25208DF818008DF81950A0
:100CF0008DF81A508DF81B5006A800F06BFB0122EE
:100D000040F22551204601F008FE0121204601F065
:100D1000F3FD07B0F0BD00000000024000100140EC
:100D2000012249A1494803F011FD494C0D282070CA
:100D300009D0002825D0014646A002F069FC4EA04B
:100D400002F066FCFEE755A002F062FC00221146AC
:100D50003DA003F043FA207018B15BA002F058FCEC
:100D6000FEE75FA002F054FC012237A1002003F04F
:100D7000EDFC2070012234A1344803F0E7FC207020
:100D800002E05FA002F044FC67A002F041FC0A22EE
:100D900070A1764803F014FD207000281ED074A0C6
:100DA00002F036FC79A002F033FC012269A16F4801
:100DB00003F006FD207000282CD07EA002F028FC55
:100DC0006A4803F0F9F901221FA1002003F0BEFCDC
:100DD0004FF4FA74204605F0EBF8FBE77BA002F035
:100DE00017FC1B4B44220833191D604803F0B4FE66
:100DF000207038B1014685A002F00AFC5B4803F080
:100E0000DBF9CFE787A0A16802F002FC10498EA0B1
:100E10000C31F1E794A002F0FBFB0D4B4FF4806224
:100E200008339649514803F078FD207020B10146FF
:100E300093A002F0EDFBC3E797A0A16802F0E8FBE6
:100E40008E499EA0F5E70000303A00004859002086
:100E5000F0000020A3A1A3A15344BFA8B9D2D4D8C5
:100E6000CEC4BCFECFB5CDB3CAA7B0DCA1A32825A4
:100E700064290D0A00000000A3A1A3A1BFC9C4DC1E
:100E8000D4ADD2F2A3BA5344BFA8B3F5CABCBBAF2A
:100E9000B2BBB3C9B9A6A1A30D0A0000A1B75344C0
:100EA000BFA8BBB9C3BBD3D0CEC4BCFECFB5CDB3F6
:100EB000A3ACBCB4BDABBDF8D0D0B8F1CABDBBAF1C
:100EC0002E2E2E0D0A000000A1B6A1B6B8F1CABDA3
:100ED000BBAFCAA7B0DCA1A3A1B7A1B70D0A0000A0
:100EE000A1B75344BFA8D2D1B3C9B9A6B8F1CABDFE
:100EF000BBAFCEC4BCFECFB5CDB3A1A30D0A0000DD
:100F0000A1B7CEC4BCFECFB5CDB3B9D2D4D8B3C986
:100F1000B9A6A3ACBFC9D2D4BDF8D0D0B6C1D0B4A5
:100F2000B2E2CAD40D0A00000D0A2A2A2A2A2A2A65
:100F300020BCB4BDABBDF8D0D0CEC4BCFED0B4C8CC
:100F4000EBB2E2CAD42E2E2E202A2A2A2A2A2A0DD1
:100F50000A000000303A4661744673B6C1D0B4B29C
:100F6000E2CAD4CEC4BCFE2E747874007C69002022
:100F7000A3A1A3A1B4F2BFAA2FB4B4BDA8CEC4BC90
:100F8000FECAA7B0DCA1A30D0A0000002A2A2A2A63
:100F90002A2A20BCB4BDABBDF8D0D0CEC4BCFEB6AE
:100FA000C1C8A1B2E2CAD42E2E2E202A2A2A2A2A69
:100FB0002A0D0A00A3A1A3A1B4F2BFAACEC4BCFE0D
:100FC000CAA7B0DCA1A30D0A00000000A1B7B4F2CB
:100FD000BFAA2FB4B4BDA84661744673B6C1D0B4DD
:100FE000B2E2CAD4CEC4BCFE2E747874CEC4BCFEA9
:100FF000B3C9B9A6A3ACCFF2CEC4BCFED0B4C8EB83
:10100000CAFDBEDDA1A30D0A00000000A3A1A3A19B
:10101000CEC4BCFED0B4C8EBCAA7B0DCA3BA2825A6
:1010200064290A00A1B7CEC4BCFED0B4C8EBB3C9D2
:10103000B9A6A3ACD0B4C8EBD7D6BDDACAFDBEDD25
:10104000A3BA25640A000000A1B7CFF2CEC4BCFE4B
:10105000D0B4C8EBB5C4CAFDBEDDCEAAA3BA0D0A92
:1010600025730D0A00000000A1B7B4F2BFAACEC4D8
:10107000BCFEB3C9B9A6A1A30D0A000048550020C3
:10108000A3A1A3A1CEC4BCFEB6C1C8A1CAA7B0DCAF
:10109000A3BA282564290A00A1B7CEC4BCFEB6C1F4
:1010A000C8A1B3C9B9A62CB6C1B5BDD7D6BDDACAD9
:1010B000FDBEDDA3BA25640D0A000000A1B7B6C1CC
:1010C000C8A1B5C3B5C4CEC4BCFECAFDBEDDCEAAA0
:1010D000A3BA0D0A2573200D0A0000001CB50549AE
:1010E0000420CDE900010202002303A1064805F017
:1010F0005DFC1CBDF400002046617446735F4465CE
:101100006D6F5F5461736B00210D00082DE9FC5F6A
:101110000024494F00944FF4806801944025C7F89B
:101120001080C7E902540E464FF0080B1021C7E9A2
:1011300000B1A146384600F0F7FA1020FFF77AF91F
:1011400000284ED13D48AA464D460089000438602B
:101150003720C7E9010AC7E90398384600F0E4FAE6
:101160003720FFF767F900283BD1411E07F1140033
:10117000C0E9001B302181600221C0E90315012173
:10118000416100F059FA3320C7F808A0C7E90050C0
:10119000C7E90358384600F0C7FA3320FFF74AF989
:1011A00005001ED1DFF898804FF4001A6F4640F218
:1011B0002A69D8F8000010EA090F0AD1504600F059
:1011C00065FA0028F5D000F0A9FA47F82400641C5D
:1011D000EFE7082000F05AFA28B1082000F014FACE
:1011E0000420BDE8FC9F022000F050FA20B102204C
:1011F00000F00AFA0220F4E7202000F047FA20B1BC
:10120000202000F001FA0620EBE74FF4007420469E
:1012100000F03CFA20B1204600F0F6F90720E0E7A4
:1012200040F2FF5000F0F0F9009800BA70600198A9
:1012300000BA30602846D4E7E801002028000020EA
:10124000342C014010B501F013FA0549884201D150
:10125000002010BD03A002F0DBF94FF0FF3010BDFD
:101260001840EF003C3C2D464C4153482D4552520E
:101270004F522D3E3E20204E6F205732355136348E
:1012800020210A00F0B5002201274FF0030C0B6863
:1012900007FA02F52B40AB422CD1066853000CFA3A
:1012A00003F4A64306600E79D0F800E09E4046EABB
:1012B0000E0606600E79012E01D0022E12D186682C
:1012C000A64386604E79D0F808E09E4046EA0E06B6
:1012D00086604668AE43466045688E799640B6B2F1
:1012E00035434560C568A543C560CC799C40C3685B
:1012F0001C43C460521C102AC9D3F0BD4B07DB0E3F
:101300009A40C90810B500EB8100016A0F249C4087
:10131000A1430162016A1143016210BD01A002F004
:1013200077F9FEE70D0A2020486172644661756C0A
:10133000745F48616E646C6572000000AFF30080FA
:101340001CB50121202000F093F88020009000209F
:101350008DF804000120074C8DF8070069462046EF
:10136000FFF790FF4021009169462046FFF78AFF72
:101370001CBD0000001402402DE9FC410121202089
:1013800000F076F801208DF8040000218DF8061099
:101390008DF807000D4F40248DF805100094694624
:1013A0003846FFF76FFF8025694638460095FFF7FE
:1013B00069FFA600694638460096FFF763FF0348B9
:1013C0001830048005800680BDE8FC8100140240CE
:1013D000FEE7704730B50F23C27801780125FAB1D6
:1013E000144A126801F1E02102F4E062C2F5E06201
:1013F000C2F30722C2F10404D3404278A2408478A9
:101400001C401443220181F80024007800F01F01E1
:101410008D404009800000F1E020C0F8005130BD4F
:1014200001F01F0085404809800000F1E020C0F86D
:10143000805130BD0CED00E00249084302490860CC
:10144000704700000000FA050CED00E010B55020D8
:10145000EFF3118480F31188BFF34F8FBFF36F8FC9
:10146000024801F02FFC84F3118810BDA079002000
:10147000044A0029116801D0014300E08143116052
:101480007047000030380240044A0029116801D03A
:10149000014300E08143116070470000443802407E
:1014A000044A0029116801D0014300E08143116022
:1014B000704700002438024070B5204B1968204C5A
:1014C00011F00C0104D06610042903D0082903D0C0
:1014D00004601BE0066019E0184A121F1168C1F38E
:1014E0008055116801F03F0115B1B6FBF1F101E043
:1014F000B4FBF1F114681268C4F388146143C2F3B9
:101500000142521C5200B1FBF2F1016019680F2236
:1015100002EA11110B4A545C0168E14041601C6809
:10152000072505EA9424145D21FA04F484601B68FD
:1015300005EA5333D25CD140C16070BD0838024027
:101540000024F400140000202DE9FC47002481460B
:1015500000942046019400F0B5F8800102D50E20D9
:10156000BDE8FC87264D6946288980B2FFF7CEFD8D
:101570000028F5D13720234E01994FF0060A4FF08D
:1015800040084FF48067B9F1010F1ED0C90334D56C
:101590002989C6F808800904C6E90010C6E903478E
:1015A000304600F0C1F83720FEF744FF0028D7D1BD
:1015B000C6F80880C6E9004AC6E90347114800F0AA
:1015C000B3F80620FEF736FFCAE7490315D5298987
:1015D000C6F808800904C6E90010C6E903470948AF
:1015E00000F0A2F83720FEF725FF0028B8D102202E
:1015F000C6F80880C6E9000ADEE72520B0E700004B
:1016000028000020E8010020014908607047000020
:10161000382C01400149086070470000382C014017
:101620000149C1F8A00070470080254201490860C7
:10163000704700008C85254210B50A4A0168116088
:10164000121D41681160131D1968D0E9022422435C
:10165000D0E90440044321F0F70122430A431A6011
:1016600010BD0000242C014010B50121CC02204601
:10167000FFF716FF2046BDE810400021FFF710BF1E
:1016800001480068C0B27047102C0140034A01466F
:10169000002012680A4200D001207047342C01401B
:1016A000034A0146002012680A4200D00120704718
:1016B000342C01400248006800F00300704700002D
:1016C000002C014008B5024908440090006808BD9C
:1016D000142C014000F09CBC044A0029116801D080
:1016E000014300E081431160704700003C2C014041
:1016F00030B5094B1A6847F6FF618A43017D84685B
:10170000C568214344682C43214304680069214390
:1017100001431143196030BD042C014001480068A9
:1017200070470000802C014010B5084A0168116024
:10173000131D1968D0E901242243D0E90340044372
:101740006FF30A0122430A431A6010BD082C0140BE
:101750000149086070470000002C01402DE9F0416C
:101760000146194800244068032813D018B1012805
:1017700001D0022825D1B1F5805F0BD04FF400676E
:101780000025124EB9420ED10120FFF7DDFE040004
:1017900003D016E02720BDE8F0813575356075600F
:1017A000C6E9025709E00020FFF7CEFE040008D189
:1017B000357535607560B560F56004483561FFF7D3
:1017C00097FF2046E7E7000028000020D001002016
:1017D0002DE9F0439549DFF858924F6880F856702C
:1017E0000989A0F85410D9F800100A0E9409047061
:1017F000C2F38304447002F0030282700A0CC270C8
:101800000A0A02714171D9F80430190E0901C18028
:10181000C288C3F3074142EA1112C28001F00F01EE
:101820000172C3F30721CA094272C1F380128272A6
:10183000C1F34012C272C1F3001202730025457356
:101840004A464FF001089268140EC2F30746C2F3ED
:10185000072C27B1012F02D0022F39D050E0890781
:10186000090D0161D9B2036943EA8101016101698E
:1018700041EA94110161C4F3C201017504F007014A
:10188000417571098175C6F38201C175B107490FB0
:101890000176037E614643EAD11303760469067E2E
:1018A000B61C08FA06F3DF17641CA4FB036C05FBE7
:1018B00003C304FB0734077A08FA07F3A6FB037C8B
:1018C000036504FB03C306FB0533C0E9127317E08D
:1018D0009906890A0161016941EA042101610169EE
:1018E00031430161036961465B1C45F10004E40476
:1018F00044EA5334DB04C0E912344FF40073036547
:10190000C1F3801343768906490E00F81A1FD1B23D
:10191000027842EAD11200F8012B01F07F0100F8B1
:10192000011BD9F80C20110ECB0900F8013BC1F3C3
:10193000411300F8013BC1F3820300F8013B890722
:10194000090F01700378C2F3074143EA911300F8CD
:10195000013BC1F340130370457001F00101817038
:10196000C2F30721CB09C370C1F380130371C1F324
:1019700040134371C1F300138371C1F38103C37139
:1019800001F003010172C2F34601417280F80A803E
:10199000274A103211680B0E03730B0C1B02C38114
:1019A000C489C1F307231C43C4810906016151683E
:1019B00004690B0E44EA034303610469C1F307435E
:1019C00044EA032303610469C1F307231C43046150
:1019D000017591680B0E43750B0C1B0683618469BE
:1019E000C1F3072344EA034383618369C9B243EA2D
:1019F00001218161D168836943EA11638361037FB7
:101A0000C1F3074243EA121303771207120DC28390
:101A1000C38BC1F307221343C383C1F3460180F88C
:101A2000201080F821802846BDE8F083280000209F
:101A3000480100201CB50020009001208DF8040012
:101A40009DF80400012803D1684600F0A3FB08B10B
:101A5000FF201CBD0098C0F343201CBD10B5FFF74C
:101A6000E9FF042803D0FF2803D0012010BD002087
:101A700010BD022010BD00007CB500248DF8004090
:101A80004FF4C060FFF7D8FC31208DF80400012529
:101A90008DF805508DF806408DF8075001A8FFF726
:101AA00099FC3B208DF804008DF8055001A8FFF744
:101AB00091FC00F043F9FFF7D7FD00F091F98DF8A4
:101AC00000009DF8000058BB00F030F88DF80000D1
:101AD0009DF8000020BB14480475046044608460D5
:101AE000C4600461FFF704FE0F485838FFF770FE2A
:101AF0008DF800009DF8000048B90B4800215838C7
:101B0000B0F85400000400F02FFB8DF800009DF8A1
:101B1000000028B94FF40060FFF720FE8DF80000A8
:101B20009DF800007CBD0000D00100202DE9F84F99
:101B300001200024ADF80000FFF7BCFDA8B3DFF8DA
:101B4000E090D9F80400042868D0364D4FF0C00A60
:101B500000260220C5F808A0C5E900604FF480689F
:101B6000C5E903682846FFF7DFFDFEF7D7FC040050
:101B70001DD1FFF7A7FDA5F1900738600420FFF7FE
:101B8000A1FD78600820FFF79DFDB8600C20FFF7ED
:101B900099FDF860D9F804004F4650B1012808D0EB
:101BA000062806D0022804D013E0FFE72520BDE870
:101BB000F88F0320E5E80260402085E841011948DC
:101BC000083DFFF7B1FD69460320FEF7C1FC0400A4
:101BD000EDD17868042821D0BDF80000B860000479
:101BE00028600920C5E9010AC5E903680D48FFF727
:101BF0009BFDFEF793FC0400D9D1FFF763FD094D6F
:101C0000A03D28600420FFF75DFD68600820FFF715
:101C100059FDA8600C20FFF755FDE8602046C6E797
:101C200028000020E801002070B51F4D0E46044634
:101C300090B04FF0FA512846FEF712FF00212846D7
:101C4000FEF724FF2846FEF72BFF4FF000600090C0
:101C50001648CDE901040020CDE903062915CDE998
:101C60000501890007918900CDE908104FF4403043
:101C70000A9004200B9003200C9048020D908010D5
:101C80000E9069462846FEF7BDFF01221021284626
:101C9000FEF7A2FF20212846FEF794FF01212846E7
:101CA000FEF7F4FE10B070BD58640240802C014075
:101CB00070B5204E0D46044690B04FF0FA513046B4
:101CC000FEF7CEFE00213046FEF7E0FE3046FEF77E
:101CD000E7FE4FF0006000901748CDE90104402076
:101CE000CDE9030500203115CDE9050189000791F3
:101CF0008900CDE908104FF440300A9004200B9081
:101D000003200C9048020D9080100E9069463046DA
:101D1000FEF778FF012210213046FEF75DFF2021FB
:101D20003046FEF74FFF01213046FEF7AFFE10B000
:101D300070BD000058640240802C01407CB5012138
:101D40000C20FFF795FB244D0C2208212846FFF7B5
:101D5000D5FA0C2209212846FFF7D0FA0C220A21D5
:101D60002846FFF7CBFA0C220B212846FFF7C6FACC
:101D70000C2211462846FFF7C1FA184E0C22022108
:101D80003046FFF7BBFA4FF47060009002208DF8E8
:101D900005008DF8040000248DF8064001208DF820
:101DA000070069462846FFF76DFA0420009069464F
:101DB0003046FFF767FAA81400908DF8074069468F
:101DC0002846FFF75FFA0121C802FFF75DFB0121FA
:101DD0008805FFF74DFB7CBD00080240000C024067
:101DE0002DE9FC5F00248DF800407B4876212746D2
:101DF0000175046044608460C46025462646A046A0
:101E00000461FFF775FC0320FFF7A2FC0120FFF738
:101E100007FCDFF8C4A14FF480610AF1180A5046AC
:101E2000CAF80040CAF80440CAF80840CAE90341A9
:101E3000FFF77AFCA1464FF4803401E0641E11D014
:101E40008020FFF723FC0028F8D05CB140F2FF505F
:101E5000FFF7DAFB48468DF800009DF800000028E7
:101E60005FD101E00320F6E74FF4D5705446CAF87D
:101E7000000008204FF0400BC4E9010B4FF00009AF
:101E8000C001C4E9039054481830FFF74DFC534B90
:101E900000224FF4803019689A4602E0DAF8001008
:101EA000401E11F0450F06D008B1480706D50322A1
:101EB0000420019207E00028F0D1F8E7480605D594
:101EC000002240200192FFF79FFB019A8DF800202D
:101ED0009DF8000030B34846372184E803084FF4EA
:101EE0008060C4E903903C481830FFF71DFC3720A0
:101EF000FEF7A0FA8DF800003748D94618300021C7
:101F0000372280E806024FF4806BC0E9031BFFF71D
:101F10000BFC3720FEF78EFA8DF800009DF80000CC
:101F200098B355E02E4801214FF080484160E3E727
:101F3000294C002618343720C4F80890C4E9006002
:101F4000C4E9036B5F462046FFF7EEFB3720FEF740
:101F500071FA8DF800009DF8000090BB214948EA15
:101F6000010020602920C4E90109C4E90367204673
:101F7000FFF7DAFB00245146086810F0450FFBD04C
:101F8000400703D50324042002E00EE040F2FF5096
:101F9000FFF73AFB8DF800409DF8000088B900205B
:101FA000FFF790FBC60F07466D1C1EB94FF6FF707A
:101FB0008542BDD34FF6FF70854203D31B208DF8B9
:101FC000000005E017F0804F02D005480221416073
:101FD0009DF80000BDE8FC9FD0010020342C01409A
:101FE00028000020000010800748006810F0C05F43
:101FF00008D006490120486103484FF0C2515830CB
:10200000FEF72EBD7047000000640240280000204B
:1020100070B54FF480752846FFF742FB1F4C38B16E
:10202000002020702846FFF7F5FA012020612EE0FD
:102030000220FFF735FB20B10220FFF7EBFA022068
:1020400024E00820FFF72CFB20B10820FFF7E2FA7C
:1020500004201BE02020FFF723FB20B12020FFF706
:10206000D9FA062012E01020FFF71AFB20B1102049
:10207000FFF7D0FA052009E04FF400752846FFF776
:102080000FFB20B12846FFF7C5FA0720207000217A
:102090004CF23A30FFF720FB207870BD280000207A
:1020A0002DE9F05F2D4FDDE90A464FF00008154697
:1020B0009946824687F80080C7F810804FF0010BE0
:1020C000C7F80CB02649C1F80080594640F22A30C2
:1020D000FFF702FB06FB04F15046FFF7A5FD0120C8
:1020E000FFF7A4FA7868022803D104026D0A45EAD2
:1020F000C9551C4F4FF0400A1020C7F808A0C7E987
:1021000000404FF480693846C7E90389FFF70CFBAC
:102110001020FEF78FF900281ED1411E07F1140090
:102120006643E0E80216902102C00221444680E89E
:10213000120807F11400FFF77FFA1220C7F808A071
:10214000C7E90050C7E903493846FFF7EDFABDE893
:10215000F05F1220FEF76EB9BDE8F09F2800002066
:102160002C2C0140E8010020094910B50860072027
:102170004860402088600020C8604FF4806008619B
:102180000846FFF7D1FABDE810400720FEF752B924
:10219000E801002070B5050019D00E48008901043F
:1021A0000D4801600D214160402181600021C16026
:1021B0004FF480610161FFF7B7FA0D20FEF73AF99D
:1021C000040003D1FFF77EFA2860204670BD262068
:1021D00070BD000028000020E8010020084810B56C
:1021E00000210C22C0E900124022C0E902211101A5
:1021F0000161FFF799FABDE810400C20FEF71AB90B
:10220000E80100202DE9F04100256C1E2146154E05
:1022100000E0491E706928B9306918B9307808B9EA
:102220000029F6D1002777610F4800E0641E01689D
:10223000890401D5002CF9D1F068012803D1FFF7FA
:10224000CDFF0546F7602C4300D1042540F2FF5036
:10225000FFF7DAF9307810B13078BDE8F081284620
:10226000FBE7000028000020342C01402DE9F0415C
:1022700000256C1E2146154E00E0491E706928B9E4
:10228000306918B9307808B90029F6D1002777618C
:102290000F4800E0641E0168C90401D5002CF9D183
:1022A000F068012803D1FFF799FF0546F7602C433A
:1022B00000D1042540F2FF50FFF7A6F9307810B1A5
:1022C0003078BDE8F0812846FBE7000028000020B8
:1022D000342C01402DE9F05F3F4FDDE90A454FF016
:1022E000000816469946824687F80080C7F8108095
:1022F0000121F9603949C1F80080012140F21A300A
:10230000FFF7EAF905FB04F15046FFF7D1FC012085
:10231000FFF78CF97868022803D10402760A46EAAE
:10232000C9562F4F10204FF0400910C7C2464FF436
:10233000806B87E8010E381F3F1FFFF7F5F910206B
:10234000FEF778F8002844D12348C846391D008993
:10235000D946000438603720C7F810B081E801057D
:102360003846FFF7E1F93720FEF764F8002830D14E
:10237000C7F808801720C7E90050C7E903A9C3467A
:10238000D0463846FFF7D0F91720FEF753F800285B
:102390001FD11920C7F808B0C7E900604646C7E951
:1023A00003893846FFF7C0F91920FEF743F80028E3
:1023B0000FD107F11402401E6543C2E900059020C9
:1023C000C2E902060120C2E904601046FFF734F9B1
:1023D0003046BDE8F09F0000280000202C2C014072
:1023E000E80100200029018802D041F0400101E00D
:1023F00021F04001018070472DE9F0410446114869
:102400004FF4807615460F460680032000F070F9E1
:10241000C7F3074000F06CF9C7F3072000F068F934
:10242000F8B200F065F904E0FF2000F061F904F86B
:10243000010B6D1EADB2F7D20248801E0680BDE8CA
:10244000F08100001A1802402DE9F04706460D46BB
:1024500011F0FF00C0F10001CFB24FEA122402F0E8
:10246000FF094FF4807A13D0E8B24042C0B205EBC6
:1024700000080CB3D01B80B2040A00F0FF093A46F2
:102480002946304600F0C6F83E44454657462DE002
:102490006CB15746641EE4B20CD33A462946304626
:1024A00000F0B8F805F5807506F58076F2E7294664
:1024B00030460EE04A46FAE7B945F8D9A9EB0700DD
:1024C000C4B23A462946304600F0A4F84146F01915
:1024D0002246BDE8F04700F09DB83A46294630460E
:1024E00000F098F805F5807506F58076641EE4B274
:1024F000F3D2B9F1000001D00246D8E7BDE8F08779
:10250000F0B587B001214220FEF7B2FF0121080398
:10251000FEF7BAFF324D052203212846FEF7EEFEF4
:10252000052204212846FEF7E9FE05221146284629
:10253000FEF7E4FE0820022600908DF804600024D7
:102540008DF8064003208DF805008DF80740694698
:102550002846FEF797FE1020009069462846FEF7B1
:1025600091FE2020009069462846FEF78BFEAF15AD
:10257000012500978DF8045069461A48FEF782FE3F
:10258000184818300780ADF80840381DADF80A002B
:10259000ADF810506802ADF81440ADF80C40ADF83D
:1025A0001200ADF8164007200F4CADF81800ADF83A
:1025B0000E6002A9204600F0F0F801212046FFF746
:1025C00011FF4FF4FA70401E0004000CFBD100F024
:1025D000CBF806A001F01CF8FEF734FE07B0F0BD02
:1025E0000004024000180240003001403C3C2D46EF
:1025F0004C4153482D494E464F2D3E3E20466C617E
:10260000736820696E6974207375636365737321E1
:102610000A0000002DE9F04114460F46054600F07F
:1026200095F812484FF480760680022000F060F89A
:10263000C7F3074000F05CF8C7F3072000F058F834
:10264000F8B200F055F8B44205D9344603E02878D2
:1026500000F04EF86D1C641EA4B2F8D20348801E30
:102660000680BDE8F04100F05DB800001A18024095
:1026700070B50D484FF4807404809F2000F038F846
:10268000FF2000F035F80646FF2000F031F805463F
:10269000FF2000F02DF801460348801E048030041E
:1026A00040EA0520084370BD1A18024070B5044680
:1026B00000F04CF800F036F80C484FF480750580B7
:1026C000202000F015F8C4F3074000F011F8C4F31F
:1026D000072000F00DF8E0B200F00AF80348801E71
:1026E0000580BDE8704000F01DB800001A180240D7
:1026F00070B50B4C05460221204600F043F8002837
:10270000F9D02946204600F046F80121204600F085
:1027100039F80028F9D0204600F03BF8C0B270BD6F
:102720000030014010B508484FF480740480052043
:10273000FFF7DEFFFF20FFF7DBFFC007FAD10248FB
:10274000801E048010BD00001A18024010B5054814
:102750004FF4807404800620FFF7CAFF0148801EF2
:10276000048010BD1A18024010B505484FF480745B
:102770000480AB20FFF7BCFF0148801E048010BD21
:102780001A1802400246002012890A4200D0012095
:102790007047808970478181704730B502884C88C6
:1027A00002F441530A88CD8822438C882C4322436B
:1027B0000C8922434C8922438C892243CC892243B1
:1027C0001A430280828B22F400628283098A01828A
:1027D00030BD00000CB50022274900920192086824
:1027E00040F4803008604FF4A043086800F40030E3
:1027F00001900098401C0090019810B900989842F0
:10280000F3D10868800334D5012001901A48403084
:10281000026842F0805202601848026842F4404266
:1028200002601548083002680260026842F4004203
:102830000260026842F4A0520260031F104A1A604C
:102840000A6842F080720A600A689201FCD50D495C
:1028500040F205720A60016821F00301016001681D
:1028600041F0020101600168C1F381010229FAD13E
:102870000CBD01920CBD0000003802400070004009
:1028800008544007003C024010B504F0BBF8012892
:1028900003D0BDE8104003F005BE10BD124810B5CE
:1028A000016841F4700101601048016841F00101C4
:1028B00001600E4A00210832116002680C4B1A4078
:1028C0000260031D0B4A1A60026822F48022026033
:1028D00006480C300160FFF77DFF03494FF00060B0
:1028E0008039086010BD000088ED00E0003802402B
:1028F000FFFFF6FE103000240029818902D041F448
:10290000005101E021F4005181817047024600200E
:1029100012880A4200D00120704710B5C1F342135B
:1029200001F01F040121A140012B07D0022B07D089
:102930001430002A026805D00A4304E00C30F8E79E
:102940001030F6E78A43026010BD00007FB50446F0
:10295000008A0D46C98820F4405001432182A08995
:1029600041F20C618843A9882A8911436A8902438C
:102970001143A181A08A20F44071A8890843A08254
:102980006846FEF799FD1A48844202D019488442ED
:1029900001D1039800E00298A189090400EBC0016D
:1029A00001EB0010296801D5490000E08900B0FB67
:1029B000F1F06422B0FBF2F109010B096FF0180588
:1029C0006B4300EB8300A3891D044FF0320306D54F
:1029D00003EBC000B0FBF2F000F0070005E003EBF2
:1029E0000010B0FBF2F000F00F00084320817FBD23
:1029F0000010014000140140C1F3080181807047BC
:102A000010B5D0F8E42552689047002010BD10B5ED
:102A1000134600240A462146FDF70CFE204610BD51
:102A200010B5134600240A462146FDF749FE20460C
:102A300010BD10B504468021FDF726FE002120467A
:102A4000FDF722FE2046BDE8104000F063BC70B5E3
:102A500005460024052085F811012346224621461B
:102A60002846FDF7E7FD284600F054FC204670BDDF
:102A700010B5C0F83C210223C0F8382180F811318C
:102A8000134600240A462146FDF71AFE204610BDD3
:102A900070B505460024042085F81101234622461E
:102AA00021462846FDF70CFE284600F033FC204660
:102AB00070BD000070B5054641B1D5F8E405426926
:102AC0008AB395F81201032846D047E095F8110122
:102AD000002605F58E74022833D1E169A068814291
:102AE0000FD9081AE061E878012803D1D4E902106F
:102AF0000844E060A08BE16882B22846FFF790FFAF
:102B00001FE0216AB1FBF0F200FB121262B98142B0
:102B10000AD3606A814207D2002211462846FFF795
:102B20007FFF66620DE016E0D5F8E405C16829B1C3
:102B300095F81201032801D1284688472846FFF757
:102B400086FF95F81601012808D105480068296913
:102B5000486085F8166101E028469047002070BD66
:102B6000E000002070B5054641B1D5F8E405826962
:102B7000FAB195F8120103282AD02BE095F811013B
:102B800005F55D74032825D1A168E069884211D953
:102B9000401AE061E878012802D1E0680844E0606A
:102BA000E069884200D3084682B22846E168FFF710
:102BB0002EFF0FE0D5F8E405016929B195F812015F
:102BC000032801D1284688472846FFF761FF01E026
:102BD00028469047002070BD38B5044648880D4609
:102BE000010A04295AD2DFE801F059021420D4F86E
:102BF000EC15A0780A68694690470146E8884028A5
:102C000003D094F81201012837D10820ADF8000054
:102C100037E0D4F8E415A0788A6A694690470146FF
:102C200002204870C4F8F01527E0C0B2062835D25B
:102C3000DFE800F003080D12171CD4F8EC15A0789B
:102C40004A6817E0D4F8EC15A0788A6812E0D4F846
:102C5000EC15A078CA680DE0D4F8EC15A0780A69E4
:102C600008E0D4F8EC15A0784A6903E0D4F8EC1534
:102C7000A0788A69694690470146BDF8000000289F
:102C80000BD0EA88002A08D080B2824200D90246DE
:102C9000ADF800202046FFF7EBFE38BD2946204660
:102CA000FFF7C7FE38BD10B5D0F8E415096A8847AC
:102CB000002010BD10B5D0F8E415496A88470020FF
:102CC00010BD00002DE9F0470646002400F059FC35
:102CD00000287CD0304600F05DFC051E78D028032B
:102CE00003D53046FDF772FD0446680303D5304630
:102CF000FDF706FD0443A8074FF0000A02D5F1686E
:102D000002204861DFF804814FF00109002D18DA34
:102D1000B07A30B1D6F80C01D6F80C1120F00300CF
:102D200008603069416821F001014160D8F8000075
:102D3000816930468847F1684FF00040486144F0AF
:102D40000104280503D53046FDF7D4FD04432807C8
:102D500009D5D8F80000C16830468847F1680820D6
:102D6000486144F00104E80603D53046FDF784FDD0
:102D70000443E80403D53046FDF7F4FD0443A804FA
:102D800019D5304600F04DFAF068C768304600F0BB
:102D9000E5FB03282FD086F80290402127F47050DD
:102DA000B18000F5A050F168C860F1684FF40050A0
:102DB000486144F00104E8020DD5D8F80000C1696B
:102DC00030468847F1684FF48010486101E00FE019
:102DD0000FE044F00104A8020AD5D8F80000016A07
:102DE00030468847F1684FF40010486144F0010410
:102DF0002046BDE8F08786F802A04FF4007127F462
:102E00007050B18000F51050CDE70000DC000020CC
:102E100090F8CC250A7090F8CD254A7090F8CE2510
:102E200090F8CF3502EB03224A8090F8D02590F835
:102E3000D13502EB03228A8090F8D22590F8D33561
:102E400002EB032292B2CA800121C0F8402180F82F
:102E50001111704710B50023044640221946FDF7B2
:102E6000CBFB0023402280212046FDF7C5FB01203B
:102E700084F81201D4F8E815A07849688847002042
:102E800010BD10B50446D0F8E8050069804703205E
:102E900084F81201002010BD10B5D0F8E415C969FE
:102EA00001B18847002010BD10B50446D0F8E405F4
:102EB000026820469047D4F8E805806880470020E3
:102EC00010BD000070B50A461A4D89780446297075
:102ED000012905D894F81201022807D003280CD044
:102EE0002046BDE870401146FFF7A3BDA1B184F8AC
:102EF0001011032084F812010BE091B194F8100135
:102F0000884209D001462046FFF77AFD297884F8E7
:102F100010112046FFF7C8FF2046BDE87040FFF7BC
:102F2000B7BD022084F8120184F810112046FFF783
:102F300067FDF1E7A000002010B504464888012293
:102F400001280FD0022831D1888810F0FF0F2DD131
:102F500021694968000A06281FD2DFE800F01E0B2D
:102F60000F13171BC4F81821D4F8E4058268204613
:102F7000904716E021F0700110310EE021F0700151
:102F800020310AE021F07001303106E021F07001BB
:102F9000403102E021F0700150310548016084F8B1
:102FA00016212046BDE81040FFF772BD10BD00009D
:102FB000E00000201CB504466946FFF729FF9DF894
:102FC000002012F01F010AD001290DD0022910D0D3
:102FD00002F080012046FDF757FB00201CBD69462A
:102FE000204600F00BF8F8E76946204600F0E8F8C4
:102FF000F3E76946204600F079F8EEE72DE9F04165
:103000004A78002701260A2A42D2DFE802F03B551F
:103010004152410805412A27FFF7DEFD61E00446E1
:103020008888C8B9C888B8B9887800F07F0594F84E
:103030001201032810D084F8145129462046FDF7C8
:103040001BFB2046FFF724FD1DB1022084F812016E
:1030500047E084F8126144E0204619E0FFF732FFB0
:103060003FE0CA88012A13D190F81221022A02D027
:10307000032A0DD102E001221B4917E0012200F5CD
:10308000887113E090F81221022A04D0032A02D09A
:10309000FFF7CFFC25E014490839CE60D0F818219D
:1030A0000AB10322CA6010490222091DFFF7E0FCA1
:1030B00017E0FFF741FF14E0044690F812010228E0
:1030C00001D00328C8D1488801280AD10020C4F8BB
:1030D0001801D4F8E4058268204690472046FFF79F
:1030E000D7FC3846BDE8F081A800002070B50D4639
:1030F000044609796878002658B3012816D00328B9
:1031000031D194F8120102282FD0032827D16888E2
:1031100028B921B1802902D02046FDF7B5FAD4F8AC
:10312000E40529468268204690470EE094F8120193
:1031300002281AD0032812D16888A0B929B18029A1
:1031400003D02046FDF73CFAE9E72046FFF7A0FC54
:1031500009E094F81201022807D003280DD029466F
:103160002046FFF766FC304670BD0029FBD0802961
:10317000F9D02046FDF788FAF5E7104A08064FF027
:1031800000034FF0010508D501F07F0000EB80003F
:1031900004EBC00090F81E0105E001EB810004EB98
:1031A000C00090F8760308B1556000E05360034911
:1031B0000222091D2046FFF75BFCD4E7A000002097
:1031C00070B5054690F8120100260C4603280DD173
:1031D000207901280AD8D5F8E40582682846904766
:1031E000E08830B92846FFF753FC02E02846FFF795
:1031F00020FC304670BD10B590F8121180F8131104
:10320000042180F81211D0F8E805C068804700203A
:1032100010BD0021C0EBC0004000491C8142FCD918
:10322000704710B501690024896883691A68C1F381
:10323000410129B1012903D0022904D0032905D174
:103240006FF30A0202E06FF30A02D21C1A600069EF
:10325000416841F480714160204610BDF0B54B7863
:1032600000254A69012B14D00B7800EB8304636DB1
:103270001E681B69E2B38A684A6162F3060323F49D
:10328000C012636D02F500221A61C278012A32D0A1
:1032900037E083691F681C6932B18E68B24208D971
:1032A00066F306044E6106E024F07F0222F4C012A9
:1032B00003E062F3060424F4C01202F500221A614E
:1032C000C278012A05D10C780A6900EB8404A4694C
:1032D000626147F004421A60C278CAB94A69BAB159
:1032E0000A78006901219140426B0A4342630FE072
:1032F000FFE70A7AC1E70B780A6900EB83035B6D8D
:103300005A61097846F0044200EB8100406D02608A
:103310002846F0BD426D07491161C178012908D1E5
:10332000426D00F2CC515161406D01684FF0802137
:1033300001607047180008C0F0B506460D780020FF
:103340004F780124AC40034606EB8502012F18D0CC
:10335000526D64F31F43146825040DD40D8965F381
:103360000A04CD78897965F3934461F3995444F064
:10337000805141F4004111603169CA691A43CA6140
:10338000F0BD926964F30F03E5E710B503464C788E
:103390000A78002003EB8202012C09D0526D1368D9
:1033A000C97823F40013032904D0022902D003E0D2
:1033B0009269F4E743F08053136010BD02464B78E6
:1033C0000978002002EB8101012B05D0496D0A68C4
:1033D00042F400120A6070478A691168002901DA14
:1033E00041F0804141F4001111607047F0B54B7815
:1033F0000A7800240125D1F814C000EB8202012BC9
:1034000017D0566D32683369BCF1000F64D08D68F7
:103410000CEB05077F1EB7FBF5F767F3DC43C3F33F
:10342000C9476F4367F312033361C378012B59D047
:103430005EE097693A683E69BCF1000F0DD08B6879
:103440006CF312069C44ACF1010CBCFBF3F363F388
:10345000DC46CB78012B05D008E06FF3120665F34C
:10346000DC4603E026F0C04606F100563E61C37814
:10347000012B0ED0CB78012B12D04B69BBB10B784E
:103480009D4003695E6B2E435E63CB78012B07D0B2
:103490000DE00D780B6900EB8505AD696B61F4E714
:1034A00003699B681B0ADB070CD042F080520B7843
:1034B00042F0044200EB83039B691A60CA78012A38
:1034C00003D026E042F00052F1E78A8A93B20A78EC
:1034D000C96800F088F81CE08F6867F3120365F391
:1034E000DC43A1E70D780B6900EB85056D6D6B6121
:1034F000CB78012B06D14B7913B142F0005201E099
:1035000042F08052097842F0044200EB8100406DA5
:1035100002602046F0BD000038B500240346224674
:103520000094009840F020000090009861F38A1009
:1035300000900098D96808610748D9680B69009322
:10354000521C824202D8009B9B06F7D40320FFF74F
:1035500060FE204638BD0000400D030001460020FB
:1035600009698968C1F3410139B1012903D00229F0
:1035700005D0032900D102207047032070470120A5
:103580007047C068406910F0010F01D000207047FB
:1035900001207047C0684169806908407047006930
:1035A0008169C069084080B2704700698169C0695B
:1035B0000840000C704700EB8101496D8968006983
:1035C00040690840704710B504460023D21C90089B
:1035D000D4F8D02003E0146841F8044B5B1C83420C
:1035E000F9D3084610BD30B505460020EC78002C14
:1035F0000CD105EB8202DB1C9B08D2F8D02003E043
:1036000051F8045B1560641C9C42F9D330BDFEE7A1
:103610000FB4054B10B503A9044A029800F018F83E
:1036200010BC5DF814FB000051510008400100205F
:1036300002E008C8121F08C1002AFAD1704770477B
:10364000002001E001C1121F002AFBD170470000D9
:103650002DE9FF4F8BB09A460F460546002606E03F
:1036600025280BD052460D9990476D1C761C287862
:103670000028F5D10FB03046BDE8F08F0024A046F9
:103680000122604900E0044315F8013F203B02FAA3
:1036900003F00842F7D128782E2817D115F8010F2A
:1036A00044F004042A280ED06FF02F022878A0F1ED
:1036B000300109290AD808EB880102EB410100EB2F
:1036C00001086D1CF2E757F8048B6D1C28786928F7
:1036D0003ED006DC0028CDD063280BD0642804D16E
:1036E00036E0732810D075284BD052460D9990477C
:1036F000761C85E017F8040B8DF8000000208DF88B
:103700000100E946012003E057F8049B4FF0FF3029
:1037100061074FF0000401D40AE0641C44450DDA4F
:103720008442FADB19F804100029F6D106E0641C83
:103730008442FCDB19F804100029F8D1264404E087
:1037400019F8010B52460D999047641EF8D257E0C4
:1037500001CF4FF00A0B002802DA40422D2102E08F
:10376000210504D52B218DF82410012103E0E10768
:1037700005D02021F7E70DF1200908910CE0002188
:10378000F9E701CF4FF00A0BF9E75946FCF7B9FD0D
:1037900001F1300209F8012D0028F6D1ADEB090046
:1037A00000F1200B600701D44FF00108D84502DD7D
:1037B000A8EB0B0000E000208046002406E009A8EA
:1037C0005246005D0D999047641C761C089884420F
:1037D000F5DB04E0302052460D999047761CB8F195
:1037E0000001A8F10108F5DC05E019F8010B5246CB
:1037F0000D999047761CBBF10001ABF1010BF4DC95
:103800006D1C34E70928010010B504460020207122
:10381000401E2063204601F0F2FD08B1032010BDD8
:10382000B4F83202A0F52A41553901D0022010BD6A
:1038300094F86A0094F86D1094F86B2040EA0161E6
:1038400094F86C00000440EA022001430A48B0EBFF
:10385000012F0DD014F8861FE278637841EA0261E7
:10386000A278120442EA03221143B0EB012F01D1E6
:10387000002010BD012010BD0046415400E0401C56
:1038800002780AB18A42FAD1D0B270478269891EA1
:10389000921E8A4201D800207047C26A807801FBDC
:1038A000002070472DE9F05F8146488B884680BB39
:1038B00098F80000DFF864A000F03F00401E00EB25
:1038C000800101EBC004012000254FF6FF7B1AF8B0
:1038D000052002EB08010E8870B1FF2C19D230468A
:1038E00001F066FA074639F81400641C01F060FA2A
:1038F00087420ED1304601E05E450AD16D1C0D2D88
:10390000E5D398F80010490606D528B139F8140017
:1039100010B10020BDE8F09F0120FBE7586D0008C2
:103920002DE9F0410F00064606D001F069FC02289F
:1039300009D20120BDE8F081356915B1B069A8420E
:1039400007D8012505E0411CF4D0B1698142F1D8C6
:103950003D462C46B069641CA04202D80224022DC8
:103960000AD32146304601F04BFC38B1411CE1D06E
:103970000128DFD0AC42EDD10020DBE76FF07042D0
:103980002146304601F0B5FF30B957B122463946DD
:10399000304601F0AEFF20B101280DD001242046B1
:1039A000C8E734617069411CF9D0401E70617079BC
:1039B00040F001007071F2E74FF0FF34EFE70000D4
:1039C0002DE9F35F88460E6800E0761C30782F28DA
:1039D000FBD05C28F9D0009800242546D0F81CB014
:1039E000705D6D1C202825D32F2823D05C2821D082
:1039F000FF2C3FD2A0F181017D290BD8715D6D1C98
:103A000001EB0020A1F1400280B23F2A02D38039AD
:103A10007F292FD2012101F085F907002AD0802FBC
:103A200004D2014667A0FFF729FF18BB2BF81470DA
:103A3000641CD5E77219C8F80020202801D204259B
:103A400016E0002514E00BEB440030F8020C2028AF
:103A50000DD02E280BD06CB100212BF8141000983B
:103A60000B222021806901F0C3FC002706E0641EC0
:103A7000002CE8D10620BDE8FC9F7F1C3BF8170016
:103A80002028FAD02E28F8D01FB145F0030500E019
:103A9000641E2CB10BEB440030F8020C2E28F7D139
:103AA0004FF00008C1464FF0080A3BF817607F1C32
:103AB00006B3202E03D02E2E04D1A74202D045F00B
:103AC0000305F2E7D04501D2A74219D1BAF10B0F95
:103AD0000ED0A74201D045F003050BD84FEA89600C
:103AE00027464FF008084FF00B0A4FEA1069DCE751
:103AF00045F00305009880690178E5293DD03EE056
:103B0000802E08D3304601F053F9002101F00AF964
:103B1000064645F00205FF2E0FD9AAF101008045A7
:103B200003D345F00305D046BFE70098310A826908
:103B300002F8081008F1010818E026B1314624A067
:103B4000FFF79CFE18B15F2645F003050EE0A6F1D5
:103B50004100192802D849F0020907E0A6F16100E6
:103B6000192803D8203E49F00109B6B200988169AE
:103B700001F8086008F1010897E705210170BAF122
:103B8000080F03D14FEA89604FEA1069C9F3810039
:103B9000032803D06FEA0901890701D145F0020526
:103BA000A90709D409F00301012901D145F0100545
:103BB000012801D145F0080500988069C5720020F0
:103BC00059E70000222A3A3C3E3F7C7F000000007B
:103BD0002B2C3B3D5B5D00002DE9F04704460021A6
:103BE00000F0A8F9002857D1FF254FF6FF79A84625
:103BF000A4F820902169206801F001FC07004AD157
:103C00006669307848B1F17AE52801F03F0139D092
:103C10000A0704D50F2935D105E004273BE00F2919
:103C200001D0D5B11EE0E2697AB3410606D596F817
:103C30000D8020F04000E18805462184A84209D18A
:103C4000717B414506D131461046FFF72BFE08B186
:103C50006D1E00E0FF25EDB217E0304601F0BFFF1A
:103C6000404518D0A069C17AC9070BD10B210022A9
:103C7000491E06D316F8012B10F8013BD21AF7D0D3
:103C800000E042B1FF25A4F820900021204600F07A
:103C900005F80700AED03846BDE8F0872DE9F041C1
:103CA000C78804467F1C38040E46000C33D02169B7
:103CB00089B3206842895209B7FBF2F302FB137201
:103CC000002A59D1491C2161E16809B342898378EE
:103CD0005209B7FBF2F25B1E1A424DD101F090FA85
:103CE000054601281CD9681C32D020688169A94288
:103CF0003CD886B1E168FFF713FE05000ED0012D18
:103D00000ED0681C24D0206801F0CEFF00BB09E073
:103D10000089B84230D80420BDE8F0810720FBE7D5
:103D20000220F9E7206800214289343001F060FB6D
:103D300029462068FFF7AAFD216800264FF00108F8
:103D400008630CE080F80480206801F0ADFF08B142
:103D50000120E1E72068016B491C761C01632068A3
:103D60008178B142EED8016B891B0163E560294679
:103D70002068FFF78BFD2061E780206841894909B1
:103D8000B7FBF1F201FB1271342202EB411108443E
:103D900060610020C0E700002DE9FF5F04460C22AF
:103DA000D4E906763946684601F01AFB9DF80B0007
:103DB000C00718D00020F8720125E0612B4632467A
:103DC0006946384601F0D6F92046FFF705FF10B9DD
:103DD0006D1C642DF2D3642D0BD004280AD19DF8FC
:103DE0000B00F872E6619DF80B0080070FD50020EC
:103DF00004E0072004B0BDE8F09F401C36F8101026
:103E00000029FAD10D211930B0FBF1F500E00125B0
:103E10000021204600F08EF888B90027216920682B
:103E200001F0EDFA58B961690978E5290AD049B17C
:103E3000002701212046FFF731FF0028EED004289B
:103E400004D004E07F1CAF4201D0F2E70720060057
:103E50006BD16D1E50D0E088411B204600F06AF8FF
:103E6000060062D1A06901F0BAFE4FF6FF7A039016
:103E70002169206801F0C3FA060056D16169D4F8BF
:103E80001C90039848730F20C8720020087388762E
:103E9000EEB2C876701E00EB800202EBC003002277
:103EA000DFF88CB001F1010801E0504502D039F88B
:103EB00013005B1C1BF802C001F80C001BF8027019
:103EC0004FEA102C07F808C000B95046521C0D2AC2
:103ED000EBD3504502D039F8130008B946F040063C
:103EE0000E7021680120087100212046FFF7D6FEE0
:103EF00006001AD16D1EBBD12169206801F07FFA3E
:103F0000060012D120220021606901F071FAD4E983
:103F100005010B2201F064FAA0696169C07A00F022
:103F200018000873216801200871304662E700001C
:103F3000586D000870B5C18083680D460446012B9A
:103F40003ED02068816999423AD923B90178032982
:103F500007D1836A2BB141898078490911FB00F6AA
:103F600010E00189A9422BD9806A11E001F048F9DB
:103F70000346401C22D0022B22D32068806998423D
:103F80001ED9AD1B2068B5421946EFD2FFF77EFC63
:103F9000E360A8B121684A895209B5FBF2F21044E6
:103FA000206148894009B5FBF0F200FB1250342231
:103FB00002EB401008446061002070BD012070BD1C
:103FC000022070BD10B520B101280AD0022803D10B
:103FD00016E0FDF751FD08B1012010BD24F00100ED
:103FE00010BDFEF78DFA4FF4FA70401E0004000C6D
:103FF000FBD1FEF7B9FBBDE81040012000F07AB814
:10400000204610BD10B51446012228B1012816D053
:10401000022821D0042010BDC1B1012909D00229F4
:1040200002D0032912D102E04FF400700DE02260AB
:104030000CE00A49002307C9FCF720F90AE029B17E
:10404000012905D00229ECD1C8022080002010BD32
:104050004FF420602060F9E7084610BDC001002041
:104060002DE9F041ADF5007D1D4614460E4620B108
:10407000012833D002282DD117E0B1074FF400708A
:1040800018D080460FE02246641C012369460020B8
:10409000FFF7E6FF070008D1424669463046FCF7C5
:1040A0001EF906F500766D1EEDD238460DF5007D41
:1040B000BDE8F081CDE90003520200233046FDF750
:1040C000EFFF38B9FEF79EF80446FDF7C7FC00285D
:1040D000FBD10CB10420E9E70020E7E711034FF61C
:1040E000FF7000EA0332304601F5C001FEF784F9A3
:1040F000F2E7000010B5012430B1012805D1FEF728
:10410000B7FA0349884200D10024204610BD0000C0
:104110001840EF002DE9F0410D46ADF5007D1C463D
:104120001646010007D0012931D002282BD10DF508
:10413000007DBDE8F081A9074FF4007710D112E0AF
:104140003A4629466846FCF7CAF83246761C0123EF
:1041500069460020FFF7DEFF0028E8D105F500756D
:10416000641EEDD2E3E7CDE9007352020023284636
:10417000FEF7B0F838B9FEF779F80446FDF76EFCA3
:104180000028FBD10CB10420D1E70020CFE702F5D5
:10419000C0664FF480580BE037033846FEF786FAC6
:1041A000424639462846FEF74FF905F58055761CFC
:1041B0002046641EF0D2BAE770B5054600F077FCE1
:1041C000040009D1284602F0C9F8040004D10021F6
:1041D0002868296001F091FD204670BD2DE9F74F58
:1041E00086B090460798012803D9132009B0BDE88E
:1041F000F08F06A801F082F8002801DA0B20F5E71D
:10420000F84951F820604EB100213170C0B20290DF
:10421000FFF7D8FEC10703D00320E7E70C20E5E74E
:10422000400701D50A20E1E706F10A0202210298BF
:10423000FFF7E8FE002876D17089B0F5805F72D86C
:10424000B0F5007F6FD303AA01210298FFF7DAFED1
:104250000028F0D103988028F4D3079909B10021F0
:1042600000E03F218A46A0EB0A01A8F1010218EA0A
:10427000020F039102D1B8F1000F13D170894FF4EE
:10428000FA62400AB2FBF0F0B1FBF0F20020D64B2C
:1042900000E0401C33F810509542FAD8D24A16324A
:1042A00032F81080B8F5007F02D37289B8FBF2F8BB
:1042B000B8F1000F12D0B8F1800F01D980208046EC
:1042C000B1FBF8F0012740F6F672904200D30227C6
:1042D0004FF6F672904203D3032725E00120EEE764
:1042E000032F21D0012F29D04200121D7089521EA8
:1042F0000244B2FBF0F90125AA03B2FBF0F00490EE
:104300000AEB050B049A0BEB0900841804EB080276
:10431000A2EB0A00884244D86A4603210298FFF7BC
:1043200071FEB0B910E0FFE07289072303EB800053
:104330001044B0FBF2F920250020E0E700EB40003C
:10434000401C4208D21CD1E7009810B1B0F5004FD4
:1043500001D9012000902118401E491E8143081BED
:104360000090032F10D0814403980499421BA2EBC4
:104370000902521AB2FBF8F10591022F07D0032F60
:104380000AD0012F11D015E005448344ECE740F634
:10439000F672914205D30DE008464FF6F671884259
:1043A00001D20E2022E70C240AE0B0F5803F06D2AD
:1043B000012405E0B0F5803F01D2042400E006248A
:1043C000079808B1F02038E0728906F13400002126
:1043D000019001F00DF806F5F9700121417081702E
:1043E0000022C2700471FE214171039B0AEB03019C
:1043F00043F6C163B1FBF3F13F2343EA910400911B
:104400008471C171037242728272C2720399017324
:104410000A0A42730A0C8273090EC173552086F88A
:104420003202AA2086F83302DDE9011001230022BE
:10443000FFF770FE002877D1F820019006F13404D0
:1044400072890021204600F0D3FF0B2267A120468D
:1044500000F0C6FF7089E072000A207384F80D80B6
:10446000A573280AE07301202074032F0BD04002AB
:104470006074000AA0740398B0F5803F05D2E07420
:10448000000A20750CE00020F2E784F82000010A01
:1044900084F82110010C84F82210000E84F8230007
:1044A000019860753F20207600206076FF21A1767C
:1044B000E07684F81CA04FEA1A2060774FEA1A4091
:1044C000A0774FEA1A60E07700F014FF80212922DC
:1044D0000090032F29D084F82700030A84F828309D
:1044E000030C84F82930000E84F82A0084F8169012
:1044F0004FEA1920E07584F8241084F8262013224E
:104500003DA104F12B0000F06BFF552084F8FE0163
:10451000AA2084F8FF010123524621460298FFF7A2
:10452000F9FD002800D136E0D9E084F84300030A01
:1045300084F84430030C84F84530000E84F84600BB
:1045400084F824904FEA192084F825004FEA194096
:1045500084F826004FEA196084F82700022084F8C6
:104560002C00002084F82D0084F82E0084F82F0001
:10457000012384F8303084F83100062384F8323087
:1045800084F8330084F8401084F8422013221FA1DD
:1045900004F14700B7E7032F06D101230AF1060211
:1045A00021460298FFF7B6FD5D464FF0000B728979
:1045B0000021204600F01CFF01980090032F31D00D
:1045C000012F2DD06FF0FF01014300912170009861
:1045D000000A60700098000CA0700098000EE07057
:1045E00037E00000E8000020666D0008EBFE904D0B
:1045F00053444F53352E30004E4F204E414D4520F1
:104600002020204641542020202020004E4F204EC4
:10461000414D4520202020464154333220202000A7
:104620004949D1E760F0FF00009020700098000A2F
:1046300060700098000CA0700098000EE070FF20E1
:1046400020716071A071E07120726072A0720F2001
:10465000E0722A466D1C012321460298FFF75AFD9D
:10466000E8BB72890021204600F0C2FE012009E06B
:104670002A466D1C012321460298FFF74BFD70BBB3
:104680000098401C00904845F2D30BF101005FEA0E
:10469000000B8CD0032F09D0049E2A466D1C0123E9
:1046A00021460298FFF736FDC8B901E04646F4E717
:1046B000761EF2D1032F3CD152202070607061220F
:1046C000A2704120E070722184F8E41184F8E511B1
:1046D00084F8E60184F8E7210598401E00E030E008
:1046E00084F8E801010A84F8E911010C84F8EA1160
:1046F000000E84F8EB01022084F8EC01002084F81D
:10470000ED0184F8EE0184F8EF01552084F8FE01F4
:10471000AA2084F8FF0101230AF101022146029830
:10472000FFF7F8FC01230AF1070221460298FFF780
:10473000F1FC002211460298FFF764FC00283FF4C8
:104740005EAD012052E5000000FFFF002DE9F741BA
:1047500081B0904602980090684600F0CFFD0400BA
:1047600003D50B2004B0BDE8F081144E002756F8A5
:10477000245025B1E86800F005FB88B12F7001993D
:1047800029B101F80C7BE0B200F0F2FA40B10198D7
:1047900046F8240010B1B8F1010F03D00020E1E782
:1047A0000220DFE7002202A901A800F029FB04464D
:1047B0000146019801F0A1FA2046D3E7E800002065
:1047C0002DE9F747ADF50D7D06000ED04FF000083E
:1047D00002F01F0727F001028EA980A8C6F800800A
:1047E00000F00EFB050005D091E009200DF5107DCD
:1047F000BDE8F08789A88690CDF81CD280A88E9954
:1048000000F072FC859C050001D104B9062517F063
:104810001C0F4ED055B1042D03D180A8FFF7BCFA70
:104820000546859C47F0080745B170E0E07A10F036
:10483000110F48D1780701D5082568E0380748D519
:1048400000F058FDA073010AE173020C2274030EFC
:104850006374A075E1752276637684F80B8084F822
:104860001C8084F81D8084F81E8084F81F802146F7
:10487000809800F061FD81460021204601F0A7F9F3
:1048800080990120B9F1000F087120D08098494625
:10489000D0F830A001F06AF9050038D18099A9F16B
:1048A000010008615146809800F0A9FD05000CD078
:1048B0002DE065BBE07AC10601D5042527E0B907E4
:1048C00003D5C00701D0072521E0380701D547F0FF
:1048D000200780982146006BC6E90704B77186F867
:1048E00007804746809800F027FD3061207FE17FF8
:1048F000627F40EA0160A17F090441EA0221084386
:10490000C6E90270B76180983060C088B0802946DF
:10491000809801F0F2F9284668E72DE9F84F8946BA
:1049200000219A4616460446196001F017FD05005D
:1049300006D02946206801F0E0F92846BDE8F88F46
:10494000E17921B1206801F0D8F9E079F6E7A079A2
:10495000C0070BD0D4E90210401A04F124014FF033
:10496000010B0091864200D9064697E00721206896
:1049700001F0C3F90720E1E72268A0685189B0FB84
:10498000F1F301FB1303002B69D1B0FBF1F1937834
:104990005B1E194011F0FF0509D108B3104661698B
:1049A00000F02EFC02281DD3411C4ED060616169CD
:1049B0002068FEF76BFFA8B100EB0508206841896D
:1049C000B6FBF1F74FB38178EA198A4200D94F1B41
:1049D00040783B4642464946FFF742FBA8BB09E008
:1049E0002069DFE70220E0710221206801F085F9EB
:1049F0000220A3E7A07940060BD5A169A1EB08002E
:104A0000B84206D221684A89009900FB029000F062
:104A1000E7FC206845897D4336E0A26942451CD009
:104A2000A179490609D5407801230099FFF772FB67
:104A300058B9A07920F04000A071206801234246B7
:104A400040780099FFF70CFB38B184F807B00121DA
:104A5000206801F052F9012070E7C4F8188020683E
:104A6000A1684089B1FBF0F200FB1212851AB54231
:104A700000D93546B1FBF0F200FB121001192A46AD
:104A80004846243100F0ACFCA068A9442844A0604A
:104A9000DAF800004119761BCAF80010002E7FF4E6
:104AA0006BAF0021206801F028F9002046E770B5BF
:104AB000044601F053FC050048D1A079810645D594
:104AC000400612D52068012304F124014078A26930
:104AD000FFF720FB28B10121206801F00EF9012029
:104AE00070BDA07920F04000A071E169206800F05D
:104AF00086FC05002AD1256AE87A40F02000E87299
:104B0000207B2877A089000A6877E068000CA877E6
:104B1000E068000EE8772846216901F058F800F0B7
:104B2000E9FBA875010AE975010C2976000E687683
:104B30000020A874E874A07920F02000A0712168FA
:104B400001200871206801F057F8054629462068C1
:104B500001F0D3F8284670BD2DE9F84F89460021B1
:104B60009A4615460446196001F0F8FB060006D087
:104B70003146206801F0C1F83046BDE8F88FE17990
:104B800021B1206801F0B9F8E079F6E7A079800753
:104B900005D40721206801F0B0F80720EDE7A068F0
:104BA00004F1240142194FF0010B009182426AD3B3
:104BB000A6E02268A0685189B0FBF1F301FB130362
:104BC000002B7AD1B0FBF1F193785B1E194011F004
:104BD000FF0612D108B1616902E0206928B90021FD
:104BE0001046FEF79DFE00284DD001282DD0411C17
:104BF00058D06061216901B92061A07940060BD5C8
:104C000020680123A26940780099FFF783FAC0BBAE
:104C1000A07920F04000A07161692068FEF736FE9F
:104C200098B100EB060820684189B5FBF1F74FB356
:104C30008178F2198A4200D98F1B40783B46424660
:104C40004946FFF767FAE0B907E00220E071022168
:104C5000206801F052F802208FE7A169A1EB08005B
:104C6000B8420AD221684A8900FB0291009800F0FC
:104C7000B7FBA07920F04000A071206846897E43F0
:104C800034E00FE000E03EE0A269424513D0D4E9F1
:104C9000021291420FD24078012342460099FFF759
:104CA000DFF940B184F807B00121206801F025F850
:104CB000012062E701E0C4F818802068A1684089FB
:104CC000B1FBF0F200FB1212861AAE4200D92E465A
:104CD000B1FBF0F200FB121020443246494624306A
:104CE00000F07EFBA07940F04000A071A068B144C4
:104CF0003044A060DAF800008119AD1BCAF800103A
:104D0000002D7FF456AFD4E90201884200D9E0605B
:104D1000A079002140F02000A071206800F0EDFF94
:104D200000202AE770B580281BD345F2205409B132
:104D30000D4D00E00D4D00231022E11A01EBD17161
:104D400003EB610135F82160864206D001D20B46A3
:104D500000E00C46521EF0D104E01AB105EB8100D0
:104D6000408870BD002070BD16C20108926D000819
:104D700010B50C46012001F0ABFB2060002800D0EC
:104D8000012010BD10B501F0D7F8012010BD00239F
:104D90001A46194601F004BD10B500234FF47A728B
:104DA000194601F0DFFB012800D0002010BD0000F3
:104DB00070B5802806D2A0F16101192901D82038E8
:104DC00080B270BD0C230C4D00224FF4F774A11A71
:104DD00002EB510135F81160864206D001D20A4635
:104DE00000E00C465B1EF2D170BD002BFCD00348E6
:104DF00030F8110070BD00009A160308761A0308F7
:104E00002DE9FF474FF0000A0746C0F800A01646FC
:104E1000084600F073FA050003D50B2004B0BDE886
:104E2000F087AE4850F82540ACB1204600F08DFA2E
:104E300098B13C60207820B16078FFF75BF9C1073A
:104E40000DD084F800A0E8B26070FFF7BBF8C1078E
:104E50000AD00320E2E70C20E0E70F20DEE70EB1E6
:104E6000400704D40020D9E71EB1400701D50A202D
:104E7000D4E7607804F10A020221FFF7C3F870BB9F
:104E80006089B0F5007F34D3B0F5805F31D800265B
:104E900031462046FEF7B8FC012826D100216D4698
:104EA00004EB011090F8F62100F5F9704AB1027A8E
:104EB000C37A42EA0362837A407A1B0443EA002001
:104EC000024345F82120491C0429E9D3002755F85D
:104ED00027602EB131462046FEF796FC01E008E03F
:104EE000022040B17F1C042FF1D3032801D0E8BB7E
:104EF00001E0012092E7B4F83F006289904273D14B
:104F0000B4F84A0068B994F8580094F85B1094F823
:104F1000593040EA016094F85A10090441EA03212B
:104F20000843E06194F844708146E770012F01D096
:104F3000022F59D194F841504743A570B5B1681E6E
:104F4000054251D1B4F845104FEA521CB1FBFCF0B8
:104F50000CFB1010218148B9B4F8470078B994F8D7
:104F6000540094F8573040EA036000E03CE094F8C5
:104F7000563094F855801B0443EA08231843B4F8CC
:104F800042308BB3B1FBFCFC03EB0708C444604523
:104F90002AD3A0EB0C00B0FBF5F028B3012540F6B6
:104FA000F678404500D302254FF6F678404500D309
:104FB0000325801CB444C4F82CC03344A061C4E968
:104FC0000863032D12D079B1D919A162022D20D026
:104FD00000F0010100EB400001EB5000401E1044C6
:104FE000B0FBF2F1494516D90D2017E70029FBD196
:104FF00094F8601094F8633094F8617041EA0361AA
:1050000094F862301B0443EA072319438000A1622D
:10501000E4E74000E2E74FF0FF306061206180206C
:105020006071032D52D1B4F8640001284ED120469E
:10503000711C00F0E4F9E8BB84F805A0B4F8320272
:10504000A0F52A41553941D194F8340094F837102D
:1050500094F8352040EA016094F83610090441EADA
:10506000022108431E49884230D194F8180294F86E
:105070001B1294F8192240EA016094F81A120904EC
:1050800041EA02210843174988421FD194F81C02C3
:1050900094F81F1294F81D2240EA016094F81E1241
:1050A000090441EA02210843606194F8200294F85F
:1050B000231200E00AE040EA016094F8221294F81A
:1050C0002122090441EA0221084320610349257095
:1050D000091F0888401C0880E080C3E6E800002023
:1050E000525261417272416173B504460199087868
:1050F0002F2801D05C2801D1491C01910025A56011
:1051000001980078202805D200212046FEF712FFE2
:1051100065617CBD01A92046FEF752FC0028F8D14C
:105120002046FEF759FDA169C97A28B10428F0D1BB
:105130004907EED405207CBD4907FCD46169C87AD3
:10514000C006F7D5206800F0F7F8A060E2E700009D
:1051500070B5074D0446C1B22846FDF74DFC8021CD
:105160002846FDF7D3FB0028F9D0204670BD00008B
:10517000001001407CB516461C4605460B2200F087
:105180002FF9052C11D91D4A0CE00021B61C23462D
:10519000044663F35F044008E30300D55440491C10
:1051A0001029F4D330880028EFD107226B4604F091
:1051B0000F003030392800D9C01D9854521E2409E0
:1051C000F5D17E2000219854541E06E081387D28B8
:1051D00002D8A14206D0491C491C914202D2685C07
:1051E0002028F3D1082A02D2985C521C00E020202B
:1051F0006854491C0829F5D37CBD0000211001002A
:105200002DE9F0410D46044602290BD3A069A842BE
:1052100008D920784FF0FF36012807D0022834D073
:10522000032846D001263046BDE8F081608905EBB1
:105230005507B7FBF0F0616A0144204600F0DFF843
:105240000028F0D16089B7FBF0F100FB11717F1CE1
:10525000B7FBF0F0214491F83480616A01442046A4
:1052600000F0CDF80028DED16089B7FBF0F100FB3B
:105270001170204490F8341048EA0120E90701D069
:105280000609D0E7C0F30B06CDE76089616A4008E4
:10529000B5FBF0F00144204600F0B1F80028C2D17F
:1052A00061896800B0FBF1F201FB12002044868E98
:1052B000B9E76089616A8008B5FBF0F001442046D7
:1052C00000F09DF80028AED16189A800B0FBF1F292
:1052D00001FB1200204410F8341FC27841EA026139
:1052E00082784078120442EA0020014321F070469F
:1052F00099E700000048704700007B5710B503464F
:105300004FF0FF301C68002C13D0214600E0491CF0
:105310000A78202A0ED33A2AF9D114F8012B303A10
:105320000A2A06D28C4204D1022A02D2491C104613
:10533000196010BD002010BD0246488B1278032A68
:1053400002D1898A40EA01407047C068FFF724BD56
:105350001CB54FF44070FCF76FF8FCF70DF8FBF745
:105360007DFCFBF7EBFFFDF7CBF80AA0FEF750F949
:1053700015490120CDE900014202002313A117487D
:1053800001F014FB012802D04FF0FF301CBD00F0EB
:1053900051FFFEE7D5E2CAC7D2BBB8F62D53544D34
:1053A0003332C8ABCFB5C1D0BFAAB7A2B0E52D4646
:1053B00072656552544F53B9CCBCFEBFE2C0FDB319
:1053C000CCA3A10A0A000000240000204170705400
:1053D00061736B437265617465000000E903000846
:1053E00003E011F8013B00F8013B521EF9D270476F
:1053F000C9B201E000F8011B521EFBD2704770B524
:105400000446006B0E460025B0420FD0204600F047
:105410004BFC05000AD160780123324604F13401C7
:10542000FEF71EFE08B16E1E01252663284670BDDC
:105430002DE9F041184E0F460446F5683068001D0E
:1054400000F069FC38B9306890F82C1001208840D1
:10545000316981433161601C07D137B13168BDE8E2
:10546000F0410E48091D00F08EBC30682C44AC425F
:105470004460316805D2B06BBDE8F041091D00F011
:105480006ABC706B091D00F066FCB06A844200D2F1
:10549000B462BDE8F0810000400000203405002027
:1054A0002DE9F041054600F07BFC2D4EB068401C14
:1054B000B06030682B4F10B1706930B32BE03560AD
:1054C000B068012827D1002404EB840007EB80009A
:1054D00000F033FC641C202CF6D3234800F02DFC94
:1054E0002148143000F029FC1F48283000F025FC2A
:1054F0001D483C3000F021FC1B48503000F01DFCE2
:10550000194870631430B06305E03068E96AC06A16
:10551000884200D83560706A0121401C7062E86AD8
:10552000326981401143316100EB800007EB80005C
:10553000291D00F028FC00F06FFC706900280CD0D9
:105540003068E96AC06A884207D208494FF0805043
:105550000860BFF34F8FBFF36F8FBDE8F08100008D
:105560004000002064020020E404002004ED00E07C
:1055700070B5124E124D1CE000F0A6FE306820B14E
:10558000002401F073FBA4B901E00124F9E700F065
:1055900007FCF068C468201D00F0BDFBA868401E31
:1055A000A8606868401E686000F036FC204600F085
:1055B00052F868680028DFD170BD00002005002087
:1055C0004000002030B4026C0B46002A0BD0C168AA
:1055D0001144C1604468A14201D30168C16030BC7C
:1055E0001846FAF77CBE30BC70472DE9F041856B58
:1055F000174604460026026C82B1C7B1E068FAF78C
:105600006EFEE168206C091AE1602268914202D2C4
:105610006168081AE060022F16D017E02068A8B968
:10562000606801F075FA0646002060600EE0A06830
:10563000FAF755FE216CA0680844A06061688842B2
:1056400004D32068A06001E005B16D1E6D1CA56348
:105650003046BDE8F08110B50446006B00F00EFC4A
:105660002046BDE8104000F009BC000010484FF48F
:10567000A041420706D0C01D0D4920F00700411A85
:10568000C1F5A0410B4A00230144C2E900030839D7
:10569000103A21F0070111604B600B600B1AC0E952
:1056A000001393604FF000405360D06070470000DB
:1056B000480500208C000020074E4FF08054074D15
:1056C000FFF756FF30680128FAD92C60BFF34F8FDF
:1056D000BFF36F8FF4E700006402002004ED00E0E8
:1056E0002DE9F047DDE909840E4682466FF003019B
:1056F000206B01EB82010844089D20F007079946C2
:10570000780705D040F22B3219A120A0FDF780FFC9
:1057100000202218315C82F83410315C11B1401C39
:105720001028F6D3002684F84360202D00D31F25CF
:10573000E562C4E91156201D00F00AFB04F11800CF
:1057400000F006FB2461C5F120006462A061E664FC
:1057500084F850604A465146384600F0F1F920601E
:10576000B8F1000F01D0C8F80040BDE8F087000094
:105770002E2E5C2E2E5C4672656552544F535C7320
:1057800072635C7461736B732E6300004572726F99
:10579000723A25732C25640D0A00000030B51149BA
:1057A00000E011460A688242FBD34B685C188442D1
:1057B00003D1406818444860084643681C18944266
:1057C00009D1084C103C2468A24209D052681A44FE
:1057D00042600A6812680260814200D0086030BDF1
:1057E0000460F9E78C00002010B5044600F0D8FAF8
:1057F000A06B20B1002400F00FFB204610BD012457
:10580000F9E700000648416B096829B1416BC96896
:10581000C9684968816270474FF0FF31FAE70000BC
:105820004000002008484068401C05D040F20F129C
:1058300006A111A0FDF7ECFE502080F31188BFF304
:105840004F8FBFF36F8FFEE7940000202E2E5C2E4B
:105850002E5C4672656552544F535C706F72745C77
:10586000525644535C41524D5F434D34465C706F19
:1058700072742E63000000004572726F723A2573D5
:105880002C25640D0A0000002DE9F041044600F0CB
:1058900087FA94F9455004F1240609E0606A48B19A
:1058A000304601F093F908B100F026FC6D1E6DB290
:1058B000002DF3DC4FF0FF3684F8456000F0ACFAC1
:1058C00000F06EFA94F9445004F1100709E02069E1
:1058D00048B1384601F07AF908B100F00DFC6D1EB0
:1058E0006DB2002DF3DC84F84460BDE8F04100F0B7
:1058F00093BA2DE9F04716460D460446022902D315
:10590000A069A84202D80220BDE8F087207806F0FE
:10591000FF084FF00109012825D002285FD0032895
:10592000F1D16089616A8008B5FBF0F0014420463E
:10593000FFF765FD0028E7D16289A900B1FBF2F30A
:1059400002FB131121444FF0704391F8372003EA12
:105950000262324301F8342F130A4B70130C8B7020
:10596000120ECA7052E0608905EB5507B7FBF0F0E4
:10597000616A01442046FFF742FD0028C4D16089D6
:10598000B7FBF0F100FB1170204434307F1CE907B5
:1059900003D0017868F31F1100E03146017084F8EC
:1059A00004906089616AB7FBF0F001442046FFF77C
:1059B00026FD0028A8D16189B7FBF1F201FB127125
:1059C00021443431EA0702D0C6F3071205E00A7811
:1059D000C6F3032302F0F0021A430A7016E060894E
:1059E000616A4008B5FBF0F001442046FFF707FD6F
:1059F000002889D162896900B1FBF2F302FB13111F
:105A00002144320A81F8348081F8352084F80490EA
:105A10007AE700002DE9F0410546002600F054FC2D
:105A2000324F386808B9FFF721FEF86805424FD1B8
:105A3000002D4DD0083568070BD005F00700C0F1E8
:105A400008000544680704D0BF2229A132A0FDF751
:105A5000DFFD002D3CD07868854239D823491031CC
:105A60000846046801E0214604466068A84202D264
:105A700020680028F7D13868B846844228D00E68DC
:105A80002068086060680836401B10280ED9671926
:105A9000780704D0EC2216A11FA0FDF7B9FD6068BD
:105AA000401B786038466560FFF778FE6168D8F87B
:105AB00004004246401AC8F80400D8F8083098425A
:105AC00000D29060D8F80C0001430020C4E9000126
:105AD00001F0CCF8700705D04FF4967204A10EA027
