:020000040802F0
:1000000070FA0120A56B040871350408D1010208BB
:100010007F350408853504088B350408000000008E
:100020000000000000000000000000003150020845
:10003000913504080000000031520208053604081A
:10004000E96B0408E96B0408E96B0408E96B040830
:10005000E96B0408E96B0408E96B0408E96B040820
:10006000E96B0408E96B0408E96B0408E96B040810
:10007000E96B0408E96B0408E96B0408E96B040800
:10008000E96B0408E96B0408E96B0408E96B0408F0
:10009000E96B0408E96B0408E96B0408E96B0408E0
:1000A000E96B0408E96B0408E96B0408E96B0408D0
:1000B000E96B0408E96B0408E96B0408E96B0408C0
:1000C000E96B0408E96B0408E96B0408E96B0408B0
:1000D000E96B0408A1350408E96B0408E96B04081E
:1000E000E96B0408E96B0408E96B0408E96B040890
:1000F000E96B0408E96B0408E96B0408E96B040880
:10010000E96B0408E96B0408E96B0408E96B04086F
:10011000E96B0408E96B0408E96B0408E96B04085F
:10012000E96B0408E96B0408E96B0408E96B04084F
:10013000E96B04081D360408E96B0408E96B040840
:10014000E96B0408E96B0408E96B0408E96B04082F
:10015000E96B0408E96B0408E96B0408E96B04081F
:10016000E96B0408E96B0408E96B0408E96B04080F
:10017000E96B0408E96B0408E96B0408E96B0408FF
:08018000E96B0408E96B0408B7
:1001900010B5054C237833B9044B13B10448AFF3C1
:1001A00000800123237010BD6402002000000000C5
:1001B000B496040808B5034B1BB103490348AFF3D9
:1001C000008008BD0000000068020020B49604080A
:1001D000704669461EF0F0FDFFF7FEFF00000000CC
:1001E00001F0FF01102A2BDB10F0070F08D010F8E8
:1001F000013B013A8B422DD010F0070F42B3F6D1EC
:10020000F0B441EA012141EA014122F007047FF004
:1002100000070023F0E80256083C85EA010586EA5B
:10022000010685FA47F5A3FA87F586FA47F6A5FA97
:1002300087F68EB9EED1F0BC01F0FF0102F00702A3
:1002400032B110F8013B013A83EA010313B1F8D14E
:100250000020704701387047002D06BF354603382F
:10026000073815F0010F07D1013015F4807F02BF68
:10027000013015F4C03F0130F0BC0138704700BFB9
:1002800010F8012B11F8013B012A28BF9A42F7D040
:10029000D01A7047034613F8012B002AFBD1181A15
:1002A000013870477BB972B90029BEBF00204FF0FA
:1002B000004106E008BF00281CBF6FF000414FF06E
:1002C000FF3000F0A7B9ADF1080C6DE904CE0029AC
:1002D00009DB002B1ADB00F035F8DDF804E0DDE97E
:1002E000022304B07047404261EB4101002B1BDB4D
:1002F00000F028F8DDF804E0DDE9022304B0404214
:1003000061EB4101524263EB43037047524263EB9E
:10031000430300F017F8DDF804E0DDE9022304B040
:10032000404261EB41017047524263EB430300F0EE
:1003300009F8DDF804E0DDE9022304B0524263EB82
:10034000430370472DE9F047089D04468E46002B75
:100350004DD18A42944669D9B2FA82F252B101FA79
:1003600002F3C2F1200120FA01F10CFA02FC41EA89
:10037000030E94404FEA1C48210CBEFBF8F61FFA0E
:100380008CF708FB16E341EA034306FB07F19942A9
:100390000AD91CEB030306F1FF3080F01F8199425C
:1003A00040F21C81023E63445B1AA4B2B3FBF8F036
:1003B00008FB103344EA034400FB07F7A7420AD9BD
:1003C0001CEB040400F1FF3380F00A81A74240F2E5
:1003D00007816444023840EA0640E41B00261DB150
:1003E000D4400023C5E900433146BDE8F0878B4285
:1003F00009D9002D00F0EF800026C5E90001304644
:100400003146BDE8F087B3FA83F6002E4AD18B421D
:1004100002D3824200F2F980841A61EB03030120C7
:100420009E46002DE0D0C5E9004EDDE702B9FFDEB3
:10043000B2FA82F2002A40F09280A1EB0C014FEA5E
:100440001C471FFA8CFE0126200CB1FBF7F307FBBB
:10045000131140EA01410EFB03F0884208D91CEB5E
:10046000010103F1FF3802D2884200F2CB804346FB
:10047000091AA4B2B1FBF7F007FB101144EA0144DA
:100480000EFB00FEA64508D91CEB040400F1FF3169
:1004900002D2A64500F2BB800846A4EB0E0440EA57
:1004A00003409CE7C6F12007B34022FA07FC4CEA60
:1004B000030C20FA07F401FA06F31C43F9404FEA53
:1004C0001C4900FA06F3B1FBF9F8200C1FFA8CFE68
:1004D00009FB181140EA014108FB0EF0884202FABC
:1004E00006F20BD91CEB010108F1FF3A80F088807D
:1004F000884240F28580A8F102086144091AA4B23A
:10050000B1FBF9F009FB101144EA014100FB0EFEBA
:100510008E4508D91CEB010100F1FF346CD28E45E9
:100520006AD90238614440EA0840A0FB0294A1EB7A
:100530000E01A142C846A64656D353D05DB1B3EBD7
:10054000080261EB0E0101FA07F722FA06F3F14007
:100550001F43C5E9007100263146BDE8F087C2F1AE
:100560002003D8400CFA02FC21FA03F39140014326
:100570004FEA1C471FFA8CFEB3FBF7F007FB10365F
:100580000B0C43EA064300FB0EF69E4204FA02F40B
:1005900008D91CEB030300F1FF382FD29E422DD95E
:1005A000023863449B1B89B2B3FBF7F607FB163393
:1005B00041EA034106FB0EF38B4208D91CEB010113
:1005C00006F1FF3816D28B4214D9023E6144C91A93
:1005D00046EA004638E72E46284605E70646E3E6A3
:1005E0001846F8E64B45A9D2B9EB020864EB0C0EAD
:1005F0000138A3E74646EAE7204694E74046D1E7BC
:10060000D0467BE7023B614432E7304609E7644469
:10061000023842E7704700BF80B483B000AF786013
:10062000064A7B6843F0BF6343F40033D36000BFE6
:100630000C37BD465DF8047B704700BF00ED00E05D
:1006400080B485B000AF78600023FB730023BB73D8
:100650000F237B737B68DB78002B39D0274BDB685B
:10066000DB431B0ADBB203F00703FB73FB7BC3F125
:100670000403BB737A7BFB7B42FA03F37B737B68D7
:100680005B781A46BB7B02FA03F3FB737B689A78AC
:100690007B7B1340DAB2FB7B1343FB73FB7B1B01B9
:1006A000FB73174A7B681B781344FA7B83F800239B
:1006B0007B681B7803F01F0311497A68127852098E
:1006C000D2B21046012202FA03F341F820300FE0C3
:1006D0007B681B7803F01F0309497A681278520976
:1006E000D2B2104601229A4000F1200341F82320A3
:1006F00000BF1437BD465DF8047B704700ED00E095
:1007000000E100E080B483B000AF786039603B68FE
:1007100023F0604323F07F0304497A6813438B601E
:1007200000BF0C37BD465DF8047B704700ED00E06C
:1007300080B483B000AF78607B681B6823F001024F
:100740007B681A607B6800221A607B6800225A600E
:100750007B6800229A607B680022DA607B68002256
:100760001A617B6821225A617B68464A934203D111
:10077000454B3D229A607EE07B68444A934204D117
:10078000414B4FF474629A6075E07B68404A934233
:1007900004D13D4B4FF474129A606CE07B683D4A83
:1007A000934204D1384B4FF074629A6063E07B68E7
:1007B000394A934203D1344B384ADA605BE07B68B4
:1007C000374A934203D1304B364ADA6053E07B68B4
:1007D000354A934203D12C4B344ADA604BE07B68B4
:1007E000334A934204D1284B4FF03D52DA6042E045
:1007F0007B68304A934203D12F4B3D229A603AE006
:100800007B682E4A934204D12B4B4FF474629A605A
:1008100031E07B682A4A934204D1274B4FF474128B
:100820009A6028E07B68274A934204D1224B4FF01C
:1008300074629A601FE07B68234A934203D11E4B87
:10084000164ADA6017E07B68204A934203D11A4BBC
:10085000144ADA600FE07B681D4A934203D1164BBD
:10086000124ADA6007E07B681A4A934203D1124BBE
:100870004FF03D52DA6000BF0C37BD465DF8047B97
:10088000704700BF106002400060024028600240D4
:100890004060024058600240706002403D0000200D
:1008A00088600240400F0020A060024000003D2010
:1008B000B8600240106402400064024028640240B4
:1008C0004064024058640240706402408864024000
:1008D000A0640240B864024080B485B000AF786084
:1008E00039600023FB607B681B68FB60FA68254B5E
:1008F0001340FB603B681A683B68DB681A433B683F
:100900005B691A433B689B691A433B68DB691A437E
:100910003B681B6A1A433B685B6A1A433B689B6AE5
:100920001A433B685B6B1A433B689B6B1343FA6843
:100930001343FB607B68FA681A607B685B69FB6045
:10094000FB6823F00703FB603B68DA6A3B681B6BBC
:100950001343FA681343FB607B68FA685A613B688B
:100960001A697B685A603B685A687B689A603B6882
:100970009A687B68DA6000BF1437BD465DF8047B77
:10098000704700BF3F801CF080B483B000AF786038
:100990000B46FB70FB78002B06D07B681B6843F08E
:1009A00001027B681A6005E07B681B6823F0010286
:1009B0007B681A6000BF0C37BD465DF8047B70474A
:1009C00080B483B000AF78600B467B807A887B6808
:1009D0005A6000BF0C37BD465DF8047B70470000CD
:1009E00080B485B000AF786039607B68104A93426C
:1009F00002D8104BFB6001E00F4BFB603B6803F03B
:100A00000053002B07D03B6823F0F02323F0821320
:100A1000FA68D36006E03B6823F0F02323F08213EA
:100A2000FA68936000BF1437BD465DF8047B7047D9
:100A30000F640240006002400064024080B485B050
:100A400000AFF860B9601346FB71BB6803F0800328
:100A5000002B0FD0FB79002B06D0FB685B6943F0BD
:100A60008002FB685A6105E0FB685B6923F0800245
:100A7000FB685A61BB68802B14D0FB79002B08D02F
:100A8000FB681A68BB6803F01E031A43FB681A6010
:100A900008E0FB681A68BB6803F01E03DB431A40DA
:100AA000FB681A6000BF1437BD465DF8047B7047D1
:100AB00080B400AF074B1B69002B05DA054B064AD3
:100AC0005A60044B054A5A6000BFBD465DF8047B7E
:100AD000704700BF003C024023016745AB89EFCD62
:100AE00080B400AF054B1B69044A43F00043136117
:100AF00000BFBD465DF8047B704700BF003C02406C
:100B000080B584B000AF78600B46FB700023FB60BB
:100B10000923FB72FB78002B02D10023FB6010E05D
:100B2000FB78012B03D14FF48073FB6009E0FB7865
:100B3000022B03D14FF40073FB6002E04FF44073CB
:100B4000FB6000F0BFF80346FB72FB7A092B2FD144
:100B50001A4B1B69194A23F440731361174B1A6926
:100B60001649FB6813430B61144B1B69134A23F0AE
:100B7000F8031361114B1A697B6813430F4A43F062
:100B8000020313610D4B1B690C4A43F4803313615C
:100B900000F098F80346FB72084B1B69074A23F0E4
:100BA00002031361054B1B69044A23F0F803136128
:100BB000FB7A18461037BD4680BD00BF003C02409E
:100BC00080B584B000AF78600B46FB700923FB73DF
:100BD00000F078F80346FB73FB7B092B1CD1114B0B
:100BE0001B69104A23F4407313610E4B0D4A1B69B5
:100BF00013610C4B1B690B4A43F0010313617B68C3
:100C0000FA781A7000F05EF80346FB73054B1B6917
:100C1000044A23F001031361FB7B18461037BD46DD
:100C200080BD00BF003C024080B483B000AF78605C
:100C3000044A7B68D36000BF0C37BD465DF8047B77
:100C4000704700BF003C024080B483B000AF09236E
:100C5000FB711B4BDB6803F48033B3F5803F02D19B
:100C60000123FB7125E0164BDB6803F01003002B1A
:100C700002D00623FB711CE0114BDB6803F4807388
:100C8000002B02D00223FB7113E00D4BDB6803F055
:100C9000E003002B02D00723FB710AE0084BDB685E
:100CA00003F00203002B02D00823FB7101E00923AB
:100CB000FB71FB7918460C37BD465DF8047B704725
:100CC000003C024080B582B000AF0923FB71FFF702
:100CD000BBFF0346FB7103E0FFF7B6FF0346FB7162
:100CE000FB79DBB2012BF7D0FB79DBB21846083772
:100CF000BD4680BD80B487B000AF786000237B61C3
:100D000000233B610023FB604FF020427B681B689F
:100D100052F823307B617A695A4B13407B617B68C0
:100D20005A687B689B681A437B68DB681A437B6858
:100D30001B691A437B685B691A437B689B691A438A
:100D40007B68DB691A437B681B6A1A437B685B6AB2
:100D50001A437B689B6A1A437B68DB6A1A437B6889
:100D60001B6B13437A6913437B614FF020417B680F
:100D70001B687A6941F823207B689B68082B0DD19A
:100D80004FF020427B681B6852F823204FF020412F
:100D90007B681B6842F0400241F823204FF020425C
:100DA0007B681B68013352F823303B613B6903F0D9
:100DB00040433B617B685B6B1A687B685B6B5B687D
:100DC0001B011A437B685B6B9B681B021A437B68A1
:100DD0005B6BDB681B041A437B685B6B1B691B0541
:100DE0001A437B685B6B5B691B061A437B685B6B12
:100DF0009B6913433A6913433B614FF020417B6881
:100E00001B6801333A6941F823207B68DB6AB3F53C
:100E1000804F29D11C4A7B681B6852F82330FB6045
:100E2000FA681A4B1340FB607B689B6B1A687B68FF
:100E30009B6B5B681B011A437B689B6B9B681B0267
:100E40001A437B689B6BDB681B041A437B689B6BB4
:100E50009B691343FA681343FB600B497B681B686B
:100E6000FA6841F8232006E0074A7B681B686FF0A8
:100E7000704142F8231000BF1C37BD465DF8047B6B
:100E8000704700BF8000F7FF040100A00000F0CF12
:100E900080B483B000AF78600B46FB70FB78002B0A
:100EA0000CD04FF020427B6852F823304FF02041A5
:100EB00043F001027B6841F823200BE04FF0204211
:100EC0007B6852F823204FF02041054B13407A688D
:100ED00041F8223000BF0C37BD465DF8047B7047F7
:100EE000FEFF0F0080B487B000AF78603960002348
:100EF0007B6100233B610023FB6000237B6176E084
:100F000001227B6902FA03F33B613B681B683A6983
:100F10001340FB60FA683B699A4265D17B681A68A6
:100F20007B695B00032101FA03F3DB431A407B6812
:100F30001A607B681A683B681B7919467B695B00FD
:100F400001FA03F31A437B681A603B681B79012B93
:100F500003D03B681B79022B2ED17B689A687B6992
:100F60005B00032101FA03F3DB431A407B689A60BC
:100F70007B689A683B685B7919467B695B0001FA7C
:100F800003F31A437B689A607B685A687B699BB25B
:100F9000194601238B40DB431A407B685A607B680B
:100FA0005B683A68927911467A6992B201FA02F264
:100FB00092B21A437B685A607B68DA687B699BB29D
:100FC0005B00032101FA03F3DB431A407B68DA601C
:100FD0007B68DA683B68DB7919467B695B0001FA5C
:100FE00003F31A437B68DA607B6901337B617B69B9
:100FF0000F2B85D900BF00BF1C37BD465DF8047BB1
:10100000704780B483B000AF78600B467B807B680C
:101010007A881A8300BF0C37BD465DF8047B7047A1
:1010200080B483B000AF78600B467B807B687A88A1
:101030005A8300BF0C37BD465DF8047B704780B40F
:1010400085B000AF78600B467B8013467B70002331
:10105000FB600023BB607A787B8803F007039B006A
:1010600002FA03F3FB607B88DB089BB21A467B68BD
:10107000083253F822207B8803F007039B000F21DE
:1010800001FA03F3DB437988C90889B2084602EA0A
:1010900003017B6800F1080243F822107B88DB081B
:1010A0009BB21A467B68083253F82230FA68134321
:1010B000BB607B88DB089BB21A467B680832B96844
:1010C00043F8221000BF1437BD465DF8047B70471B
:1010D00080B489B000AF78600023BB6100237B61DE
:1010E0000023FB6102233B610023FB600223BB6002
:1010F0004A4B9B6803F00C03BB61BB69082B11D002
:10110000BB69082B44D8BB69002B03D0BB69042BF7
:1011100004D03DE07B68424A1A603DE07B68414A6A
:101120001A6039E03D4B5B689B0D03F00103FB60E7
:101130003A4B5B6803F03F03BB60FB68002B0CD0AD
:10114000384ABB68B2FBF3F3344A52689209C2F3DF
:10115000080202FB03F3FB610BE0314ABB68B2FB00
:10116000F3F32E4A52689209C2F3080202FB03F31A
:10117000FB612A4B5B681B0C03F0030301335B002C
:101180003B61FA693B69B2FBF3F27B681A6003E0EA
:101190007B68234A1A6000BF204B9B6803F0F00372
:1011A000BB61BB691B09BB611F4ABB6913441B7848
:1011B000DBB27B617B681A687B69DA407B685A60C6
:1011C000164B9B6803F4E053BB61BB699B0ABB6190
:1011D000154ABB6913441B78DBB27B617B685A6894
:1011E0007B69DA407B689A600C4B9B6803F4604330
:1011F000BB61BB695B0BBB610B4ABB6913441B78CA
:10120000DBB27B617B685A687B69DA407B68DA60B5
:1012100000BF2437BD465DF8047B704700380240AC
:101220000024F40000127A000000002080B483B093
:1012300000AF78600B46FB70FB78002B06D00A4BA2
:101240001A6B09497B6813430B6306E0064B1A6B64
:101250007B68DB43044913400B6300BF0C37BD467A
:101260005DF8047B704700BF0038024080B483B053
:1012700000AF78600B46FB70FB78002B06D00A4B62
:101280009A6B09497B6813438B6306E0064B9A6BA4
:101290007B68DB43044913408B6300BF0C37BD46BA
:1012A0005DF8047B704700BF0038024080B483B013
:1012B00000AF78600B46FB70FB78002B06D00A4B22
:1012C0001A6C09497B6813430B6406E0064B1A6CE1
:1012D0007B68DB43044913400B6400BF0C37BD46F9
:1012E0005DF8047B704700BF0038024080B483B0D3
:1012F00000AF78600B46FB70FB78002B06D00A4BE2
:101300005A6C09497B6813434B6406E0064B5A6CE0
:101310007B68DB43044913404B6400BF0C37BD4678
:101320005DF8047B704700BF0038024080B483B092
:1013300000AF78600B46FB70FB78002B06D00A4BA1
:101340001A6909497B6813430B6106E0064B1A6969
:101350007B68DB43044913400B6100BF0C37BD467B
:101360005DF8047B704700BF0038024080B483B052
:1013700000AF78600B46FB70FB78002B06D00A4B61
:101380001A6A09497B6813430B6206E0064B1A6A26
:101390007B68DB43044913400B6200BF0C37BD463A
:1013A0005DF8047B704700BF0038024080B483B012
:1013B00000AF78600B46FB70FB78002B06D00A4B21
:1013C0005A6A09497B6813434B6206E0064B5A6A26
:1013D0007B68DB43044913404B6200BF0C37BD46BA
:1013E0005DF8047B704700BF0038024080B584B0D0
:1013F00000AF786039600023FB60244B1B6803F06A
:101400007F3323F0FE43FB60FB681B0CDBB203F071
:101410003F03DAB23B681A70FB681B0ADBB203F0C9
:101420007F03DAB23B685A70FB68DBB203F07F03DC
:10143000DAB23B689A70FB681B0CDBB203F0400326
:10144000DAB23B68DA707B68002B1AD13B681B78F4
:10145000184600F06BF803461A463B681A703B6862
:101460005B78184600F062F803461A463B685A70EB
:101470003B689B78184600F059F803461A463B68CB
:101480009A7000BF1037BD4680BD00BF00280040E5
:1014900080B584B000AF786039600023FB60224BD8
:1014A0005B6823F07F4323F0C003FB60FB681B0CE9
:1014B000DAB23B68DA70FB681B0ADBB203F01F0389
:1014C000DAB23B685A70FB68DBB203F03F03DAB272
:1014D0003B689A70FB685B0BDBB203F00703DAB280
:1014E0003B681A707B68002B1AD13B68DB78184682
:1014F00000F01CF803461A463B68DA703B685B78DC
:10150000184600F013F803461A463B685A703B68C9
:101510009B78184600F00AF803461A463B689A7012
:1015200000BF1037BD4680BD0028004080B485B0A4
:1015300000AF0346FB710023FB73FB791B09DBB291
:101540001A46920013445B00FB73FB7903F00F0310
:10155000DAB2FB7B1344DBB218461437BD465DF8A4
:10156000047B704780B582B000AF78607B682E4AFC
:1015700093420AD101214FF48050FFF717FF002159
:101580004FF48050FFF712FF49E07B68274A9342EF
:101590000AD101214FF48040FFF7E8FE00214FF40B
:1015A0008040FFF7E3FE3AE07B68214A93420AD18C
:1015B00001214FF40040FFF7D9FE00214FF4004015
:1015C000FFF7D4FE2BE07B681A4A93420AD101212F
:1015D0004FF40050FFF7EAFE00214FF40050FFF7F0
:1015E000E5FE1CE07B68144A93420AD101214FF4C6
:1015F0008010FFF7DBFE00214FF48010FFF7D6FECE
:101600000DE07B680D4A934209D101214FF400108F
:10161000FFF7CCFE00214FF40010FFF7C7FE00BF1C
:101620000837BD4680BD00BF003001400038004093
:10163000003C004000340140005001400054014093
:1016400080B485B000AF786039600023FB817B688F
:101650001B88FB81FB8903F44153FB813B681A889B
:101660003B685B8813439AB23B689B8813439AB2EA
:101670003B68DB8813439AB23B681B8913439AB2D9
:101680003B685B8913439AB23B689B8913439AB2C8
:101690003B68DB8913439AB2FB891343FB817B6868
:1016A000FA891A807B689B8B9BB223F400639AB201
:1016B0007B689A833B681A8A7B681A8200BF14375A
:1016C000BD465DF8047B704780B483B000AF78609E
:1016D0000B46FB70FB78002B08D07B681B889BB205
:1016E00043F040039AB27B681A8007E07B681B884E
:1016F0009BB223F040039AB27B681A8000BF0C377C
:10170000BD465DF8047B704780B483B000AF78605D
:101710007B689B899BB218460C37BD465DF8047BFD
:10172000704780B483B000AF78600B467B807B68E5
:101730007A889A8100BF0C37BD465DF8047B7047FC
:1017400080B483B000AF78600B46FB70FB78002B51
:1017500008D07B681B889BB243F400539AB27B6825
:101760001A8007E07B681B889BB223F400539AB26F
:101770007B681A8000BF0C37BD465DF8047B70475C
:1017800080B485B000AF78600B467B800023FB738C
:101790007B681B899AB27B8813409BB2002B02D0D6
:1017A0000123FB7301E00023FB73FB7B1846143716
:1017B000BD465DF8047B704780B483B000AF7860AD
:1017C000044A7B68136000BF0C37BD465DF8047B9C
:1017D000704700BFDC00274280B58AB000AF786058
:1017E000396000237B6200233B620023FB610023FE
:1017F000BB617B681B8A9BB27B627B6A23F440538C
:101800007B623B68DB881A467B6A13437B627B6A98
:101810009AB27B681A827B689B899BB27B627B6AE7
:1018200023F4B05323F00C037B623B689A883B6837
:101830001B8913439AB23B685B8913439BB21A46D8
:101840007B6A13437B627B6A9AB27B689A817B686E
:101850009B8A9BB27B627B6A23F440737B623B680A
:101860009B891A467B6A13437B627B6A9AB27B68C8
:101870009A8207F108031846FFF72AFC7B68304A72
:10188000934203D07B682F4A934202D17B693B622B
:1018900001E03B693B627B689B899BB21BB2002BDA
:1018A0000CDA3A6A13469B0013449A001A443B68C8
:1018B0001B685B00B2FBF3F3FB610BE03A6A134673
:1018C0009B0013449A001A443B681B689B00B2FBC0
:1018D000F3F3FB61FB691C4AA2FB03235B091B01B9
:1018E0007B627B6A1B09642202FB03F3FA69D31A49
:1018F000BB617B689B899BB21BB2002B0CDABB6976
:10190000DB003233104AA2FB03235B0903F0070319
:101910007A6A13437B620BE0BB691B0132330A4ACC
:10192000A2FB03235B0903F00F037A6A13437B6274
:101930007B6A9AB27B681A8100BF2837BD4680BD9A
:1019400000100140001401401F85EB5180B483B0AA
:1019500000AF78600B46FB70FB78002B08D07B68EB
:101960009B899BB243F400539AB27B689A8107E04B
:101970007B689B899BB223F400539AB27B689A815F
:1019800000BF0C37BD465DF8047B704780B483B060
:1019900000AF78600B467B807B88C3F308039AB264
:1019A0007B689A8000BF0C37BD465DF8047B7047AA
:1019B00080B483B000AF78607B689B889BB2C3F330
:1019C00008039BB218460C37BD465DF8047B704790
:1019D00080B483B000AF78600B467B8013467B7089
:1019E0007B78002B08D07B689B8A9AB27B88134354
:1019F0009AB27B689A8209E07B689B8A9AB27B885C
:101A0000DB439BB213409AB27B689A8200BF0C37CB
:101A1000BD465DF8047B704780B487B000AF786046
:101A20000B467B8013467B7000233B610023FB60E9
:101A30000023BB6000237B617B687B617B88DBB21A
:101A40005B09DBB23B617B8803F01F03FB60012273
:101A5000FB6802FA03F3BB603B69012B03D17B698E
:101A60000C337B6109E03B69022B03D17B691033A6
:101A70007B6102E07B6914337B617B78002B06D0AD
:101A80007B6919687B69BA680A431A6006E07B695A
:101A90001968BB68DA437B690A401A6000BF1C37CB
:101AA000BD465DF8047B704780B485B000AF7860B8
:101AB0000B467B800023FB737B681B889AB27B8874
:101AC00013409BB2002B02D00123FB7301E00023E3
:101AD000FB73FB7B18461437BD465DF8047B7047EB
:101AE00080B487B000AF78600B467B800023FB603A
:101AF00000237B610023BB600023FB747B88DBB287
:101B00005B09DBB2BB607B8803F01F037B610122B2
:101B10007B6902FA03F37B61BB68012B07D17B6809
:101B20009B899BB21A467B6913407B6111E0BB68BD
:101B3000022B07D17B681B8A9BB21A467B69134034
:101B40007B6106E07B689B8A9BB21A467B691340E7
:101B50007B617B881B0A9BB2FB600122FB6802FA57
:101B600003F3FB607B681B889BB21A46FB6813403B
:101B7000FB607B69002B05D0FB68002B02D00123A2
:101B8000FB7401E00023FB74FB7C18461C37BD4648
:101B90005DF8047B7047000080B500AF154BD3F8AB
:101BA0008830144A43F47003C2F88830124B1B6823
:101BB000114A43F0010313600F4B00229A600E4B51
:101BC0001B680D4A23F0847323F4803313600A4B9F
:101BD0000A4A5A60084B1B68074A23F480231360A3
:101BE000054B0022DA6000F00DF8024B044A9A60BF
:101BF00000BF80BD00ED00E000380240103000243E
:101C00000000020880B483B000AF00237B60002393
:101C10003B60364B1B68354A43F480331360334BCB
:101C20001B6803F400333B607B6801337B603B68D7
:101C3000002B03D17B68B3F5A04FF0D12B4B1B6871
:101C400003F40033002B02D001233B6001E00023AA
:101C50003B603B68012B42D1244B1B6C234A43F071
:101C600080531364224B1B68214A43F440431360A2
:101C70001E4B1E4A9B6893601C4B9B681B4A43F497
:101C800000439360194B9B68184A43F4A053936038
:101C9000164B184A5A60154B1B68144A43F0807360
:101CA000136000BF114B1B6803F00073002BF9D0C9
:101CB000114B40F205721A600C4B9B680B4A23F0E3
:101CC00003039360094B9B68084A43F00203936047
:101CD00000BF064B9B6803F00C03082BF9D100BF33
:101CE0000C37BD465DF8047B704700BF00380240EA
:101CF0000070004008544007003C024080B485B0AA
:101D000000AF78600023FB607B68FB6002E0FB684B
:101D1000013BFB60FB68002BF9D100BF00BF14370B
:101D2000BD465DF8047B704780B500AF01214FF0E0
:101D30000070FFF7FBFA00214FF00070FFF7F6FA92
:101D400000BF80BD80B483B000AF78607B680122A3
:101D50001A607B6800225A607B6800229A607B6868
:101D60000022DA607B6800221A617B684FF48042AF
:101D70005A617B6800229A617B680022DA617B6885
:101D80004FF400621A627B6800225A627B6800226C
:101D90009A627B680022DA627B6800221A637B68A1
:101DA00000225A637B6800229A637B680022DA6310
:101DB0007B6840221A647B6820225A647B68002278
:101DC0009A647B680022DA647B6800221A657B686B
:101DD00000225A657B6800229A657B680022DA65DA
:101DE0007B6800221A667B6880225A667B68002224
:101DF0009A667B680022DA667B6800221A677B6835
:101E000000225A677B6800229A677B680022DA67A3
:101E10007B684FF08062C3F880207B684FF00072CF
:101E2000C3F884207B680022C3F888207B684FF4C5
:101E30000012C3F88C207B680022C3F890207B68D6
:101E40000022C3F894207B680022C3F898207B68A6
:101E50000022C3F89C207B680022C3F8A0207B6886
:101E60004FF00072C3F8A4207B684FF48032C3F8AF
:101E7000A8207B684FF48002C3F8AC207B684FF445
:101E80000052C3F8B0207B680022C3F8B4207B68FE
:101E90000022C3F8B82000BF0C37BD465DF8047BB4
:101EA0007047000080B58CB000AF78600B467B8037
:101EB0000023BB620023FB6200233B62604B7B621A
:101EC0000023FB600123BB605E4B1B69FB62FB6A66
:101ED00023F01C03FB6207F110031846FFF7F8F824
:101EE0007B697B627B6A584A934208D97B6A574A6E
:101EF000934204D8FB6A43F00803FB6227E07B6A45
:101F0000524A934208D97B6A4D4A934204D2FB6AF3
:101F100043F00C03FB621AE07B6A494A934203D305
:101F20007B6A4B4A934211D97B6A494A934208D94A
:101F30007B6A484A934204D8FB6A43F00403FB627D
:101F400005E0FB6A43F01003FB6200E000BF3D4A7E
:101F5000FB6A13617B884FF400420021184600F0B1
:101F6000BFFD0346002B02D10023BB6092E03A483C
:101F7000FFF7C4FE7B681B68002B73D0FB6801333E
:101F8000FB607B880121184600F05AFD034603F0F0
:101F90000403002B03D1FB68304A9342EED9FB685F
:101FA0002F4A934202D10023BB6073E00023FB6001
:101FB0007B884FF480520021184600F091FD0346C3
:101FC000002B01D10023BB60FB680133FB607B88E1
:101FD0000121184600F034FD034603F02003002BD6
:101FE00003D1FB681D4A9342EED9FB681C4A934219
:101FF00002D10023BB604DE00023FB607B881F21E2
:10200000184600F01DFD0346BB62BB6A03F01003D7
:10201000002B04D07B684FF400621A6202E07B68F8
:1020200000221A62BB6A03F00403002B03D07B6812
:1020300000225A612EE07B684FF480425A6129E009
:102040000087930300800240FF2C3101BF0E16026F
:10205000FFE0F5057FD1F008FFFF0F00FEFF040051
:10206000FFFF04007B681B6ADB089AB27B685B6930
:102070005B089BB213439AB27B880021184600F09C
:102080002FFD0346002B01D10023BB606FF07F4082
:10209000FFF734FEBB68002B07D17B684FF400626A
:1020A0001A627B684FF480425A619B4B1B68FB624B
:1020B000FA6A9A4B1340FB627B685A687B689B689C
:1020C0001A437B68DB681A437B681B691A437B6889
:1020D0005B691A437B689B691A437B68DB691A4317
:1020E0007B681B6A1A437B685B6A1A437B689B6A3E
:1020F0001A437B68DB6A1A437B681B6B1A437B6855
:102100005B6B1343FA6A1343FB62834AFB6A1360F7
:10211000814B1B68FB624FF6FF70FFF7EFFD7E4AB5
:10212000FB6A13607B689A6B7B68DB6B1A437B6886
:102130001B6C1A437B685B6C1A437B689B6C1A436D
:102140007B68DB6C1A437B681B6D1A437B685B6D95
:10215000714913434B60704B5B68FB624FF6FF7035
:10216000FFF7CCFD6C4AFB6A53606B4A7B689B6D42
:102170009360694A7B68DB6DD360674B9B69FB6248
:10218000FA6A4FF641731340FB627B681B6E1A04B8
:102190007B685B6E1A437B689B6E1A437B68DB6EC1
:1021A0001A437B681B6F1A437B685B6F1343FA6AA1
:1021B0001343FB62584AFB6A9361574B9B69FB626E
:1021C0004FF6FF70FFF79AFD534AFB6A93617B68F5
:1021D0009A6F7B68DB6F50491343CB614E4BDB69D1
:1021E000FB624FF6FF70FFF789FD4B4AFB6AD36134
:1021F000494B03F580539B69FB62FA6A484B1340D5
:10220000FB627B68D3F880207B68D3F884301A4364
:102210007B68D3F888301A437B68D3F88C301A4334
:102220007B68D3F890301A437B68D3F894301A4314
:102230007B68D3F898301A437B68D3F89C301A43F4
:102240007B68D3F8A0301343FA6A1343FB62324B26
:1022500003F580531A46FB6A93612F4B03F58053B5
:102260009B69FB624FF6FF70FFF748FD2A4B03F5B1
:1022700080531A46FB6A93617B68D3F8A4207B687D
:10228000D3F8A8301A437B68D3F8AC301A437B6884
:10229000D3F8B0301A437B68D3F8B4309B001A43AC
:1022A0007B68D3F8B83013431B4A43F4000302F5AC
:1022B00080521360184B03F580531B68FB624FF686
:1022C000FF70FFF71BFD144B03F580531A46FB6AA2
:1022D0001360114B03F580531B680F4A43F08003D2
:1022E00002F5805213600C4B03F580531B68FB62B0
:1022F0004FF6FF70FFF702FD074B03F580531A46B8
:10230000FB6A1360BB68012B01D1012300E00023AD
:1023100018463037BD4680BD008002400F8120FF47
:10232000233FDEF880B500AF012000F00DF801205A
:1023300000F032F800F014FB012000F035FB012022
:1023400000F058FB00BF80BD80B584B000AF0346ED
:10235000FB710023FB60FB79002B06D00D4B1B6843
:102360000C4A43F00803136005E00A4B1B68094A56
:1023700023F008031360074B1B68FB604FF6FF70E8
:10238000FFF7BCFC034AFB68136000BF1037BD4673
:1023900080BD00BF0080024080B584B000AF03461E
:1023A000FB710023FB60FB79002B06D00D4B1B68F3
:1023B0000C4A43F00403136005E00A4B1B68094A0A
:1023C00023F004031360074B1B68FB604FF6FF709C
:1023D000FFF794FC034AFB68136000BF1037BD464B
:1023E00080BD00BF0080024080B485B000AF78603F
:1023F00039603B6805331B781B023A680432127857
:102400001343FB607A68114B13441A46FB68136050
:102410003B6803331B781A063B6802331B781B04A6
:102420001A433B6801331B781B0213433A68127846
:102430001343FB607A68064B13441A46FB6813602B
:1024400000BF1437BD465DF8047B704740800240F2
:102450004480024090B486B000AF78600023FB60F7
:1024600000233B6100237B610023BB6078E0BB68F5
:102470000133BB60454B1B681B6803F40073002BE2
:1024800016D0424B1B681B6803F48073002B0FD1DE
:102490003F4B1B683D4A12681A603D4B1B68012286
:1024A0009A603A4B1B68DB681A46384B1A6057E053
:1024B000364B1B681B6803F48073002B12D1334B1F
:1024C0001B681B6803F40073002B0BD1304B1B6897
:1024D0009A6801329A602D4B1B68DB681A462B4BB9
:1024E0001A603DE02A4B1B68284A12685A60284B44
:1024F0001B689A6801329A60254B1B689B68012B08
:1025000004D1234B1B68214A12681A601F4B1B68B9
:102510001B681B0CC3F30D03043BFB601C4B1B68C7
:102520009B68012B05D91A4B1B681B689B683B6194
:1025300003E0164B1B689B683B61154B1B681B68CF
:102540007B61124B1B68DB681A46104B1A607B6874
:102550001C4607F10C0393E8070084E8070010E02D
:102560000A4B1B681B68002B03DBBB68042B7FF640
:102570007EAF7B681C4607F10C0393E8070084E8F4
:10258000070078681837BD4690BC70474C3F002064
:102590005C3F002080B487B000AF0346FB8000237F
:1025A0007B610023BB6000233B614F4B1B681B68B2
:1025B000002B01DA002390E04B4B1B68FB60FB888B
:1025C00040F2F452934217D9FB88484AA2FB0323F6
:1025D0009B0A9BB27B61FB88444AA2FB0312920ACE
:1025E00040F2F45101FB02F29B1A9BB2002B05D082
:1025F0007B6901337B6101E001237B617B69012BF6
:1026000014D1FB681B6843F04052FB681A60FB88DA
:10261000C3F30C02FB685A60FB681B6843F000427E
:10262000FB681A60FB68DB68FB603EE000233B61EF
:1026300037E0FB681B6823F04052FB681A603B6977
:10264000002B05D1FB681B6843F08052FB681A60C1
:10265000FB6840F2F4525A607B69013B3A699A4246
:1026600013D1FB681B6843F00052FB681A60FA88BC
:102670007B691F4901FB03F3134403F2F453BB606E
:10268000BB68C3F30C02FB685A60FB681B6843F02D
:102690000042FB681A60FB68DB68FB603B69013342
:1026A0003B613A697B699A42C3D30F4AFB68136066
:1026B000104B03F580535B6903F00403002B0BD030
:1026C0000C4B03F580531A4604235361094B03F561
:1026D00080531A4600235360012318461C37BD4619
:1026E0005DF8047B704700BF483F00200BB002AC90
:1026F0000CFAFFFF0080024080B487B000AFF860A2
:10270000B9607A6000237B61214AFB681360002373
:102710007B612AE07B695B01FA6813443B613B699A
:102720004FF000421A603B6944F2F4525A607B69F0
:1027300040F2F45202FB03F3BA6813441A463B69B1
:102740009A607B68013B7A699A4208D27B690133BF
:102750005B01FA6813441A463B69DA6002E0FA68E2
:102760003B69DA607B6901337B617A697B689A42F5
:10277000D0D3084AFB6802F58052D360064B074A63
:102780001A6000BF1C37BD465DF8047B704700BF70
:102790004C3F0020008002405C3F0020503F002062
:1027A00080B487B000AFF860B9607A6000237B61C5
:1027B0001D4AFB68136000237B6126E07B695B0197
:1027C000FA6813443B613B694FF480121A607B69DD
:1027D00040F2F45202FB03F3BA6813441A463B6911
:1027E0009A607B68013B7A699A4208D27B6901331F
:1027F0005B01FA6813441A463B69DA6002E0FA6842
:102800003B69DA607B6901337B617A697B689A4254
:10281000D4D3064AFB6802F58052136100BF1C370F
:10282000BD465DF8047B7047483F002000800240B1
:1028300080B483B000AF786039607B681A683B6809
:102840001A437B681A6000BF0C37BD465DF8047BF5
:10285000704780B483B000AF78600B46FB70FB78A4
:10286000002B06D07B685B6823F000427B685A60CF
:1028700005E07B685B6843F000427B685A6000BFFC
:102880000C37BD465DF8047B7047000080B400AF94
:10289000074B03F580531B68054A43F0010302F51B
:1028A0008052136000BFBD465DF8047B704700BFD7
:1028B0000080024080B485B000AF78600023FB73D5
:1028C000094B03F580535A697B681340002B02D0F3
:1028D0000123FB7301E00023FB73FB7B18461437D5
:1028E000BD465DF8047B70470080024080B483B031
:1028F00000AF78600B46FB70FB78002B0AD00E4BC4
:1029000003F58053DA690C497B68134301F5805263
:10291000D3610AE0084B03F58053DA697B68DB4337
:102920000549134001F58052D36100BF0C37BD4605
:102930005DF8047B704700BF0080024080B483B024
:1029400000AF7860054B03F580531A467B685361EE
:1029500000BF0C37BD465DF8047B70470080024025
:1029600080B582B000AF00237B600E4B03F580532F
:102970009B690C4A43F4801302F580529361094B22
:1029800003F580539B697B604FF6FF70FFF7B6F944
:10299000044A7B6802F58052936100BF0837BD4648
:1029A00080BD00BF0080024080B483B000AF03460A
:1029B000FB71FB79002B0AD00D4B03F580539B690B
:1029C0000B4A43F4005302F58052936109E0084B2F
:1029D00003F580539B69064A23F4005302F58052A5
:1029E000936100BF0C37BD465DF8047B704700BFA4
:1029F0000080024080B483B000AF0346FB71FB79D6
:102A0000002B0AD00D4B03F580539B690B4A43F012
:102A1000020302F58052936109E0084B03F58053ED
:102A20009B69064A23F0020302F58052936100BFBE
:102A30000C37BD465DF8047B704700BF0080024044
:102A400080B485B000AF03460A46FB801346BB80C6
:102A50000023FB600023BB601E4B1B69FB60FB680F
:102A600003F01C03FB60FB88DB029BB2FA68134394
:102A7000FB60BB889B0103F4F863FA681343FB60B7
:102A8000FB6823F00203FB60FB6843F00103FB607B
:102A9000104AFB681361BB680133BB600D4B1B69B7
:102AA000FB60FB6803F00103002B03D0BB680A4AFC
:102AB0009342F0D9BB68094A934201D1002302E056
:102AC000044B5B699BB218461437BD465DF8047B26
:102AD000704700BF00800240FEFF0400FFFF0400BB
:102AE00080B485B000AF0346FB800B46BB80134625
:102AF0007B800023FB600023BB601F4B1B69FB60D6
:102B0000FB6803F01C03FB60FB88DB029BB2FA68E6
:102B10001343FB60BB889B0103F4F863FA6813431B
:102B2000FB60FB6843F00203FB60FB6843F00103BA
:102B3000FB60114A7B8853610F4AFB681361BB68D5
:102B40000133BB600C4B1B69FB60FB6803F00103A6
:102B5000002B03D0BB68094A9342F0D9BB68084AEE
:102B6000934201D1002300E0012318461437BD46EB
:102B70005DF8047B704700BF00800240FEFF040048
:102B8000FFFF040080B483B000AF78607B6803F17E
:102B900008027B685A607B684FF0FF329A607B685E
:102BA00003F108027B68DA607B6803F108027B6846
:102BB0001A617B6800221A6000BF0C37BD465DF8C1
:102BC000047B704780B483B000AF78607B680022DC
:102BD0001A6100BF0C37BD465DF8047B704780B4B6
:102BE00085B000AF786039607B685B68FB603B68EC
:102BF000FA685A60FB689A683B689A60FB689B6851
:102C00003A685A60FB683A689A603B687A681A6169
:102C10007B681B685A1C7B681A6000BF1437BD466E
:102C20005DF8047B704780B485B000AF7860396090
:102C30003B681B68BB60BB68B3F1FF3F03D17B6897
:102C40001B69FB600CE07B680833FB6002E0FB68FB
:102C50005B68FB60FB685B681B68BA689A42F6D2E7
:102C6000FB685A683B685A603B685B683A689A60E0
:102C70003B68FA689A60FB683A685A603B687A6811
:102C80001A617B681B685A1C7B681A6000BF143786
:102C9000BD465DF8047B704780B485B000AF7860B6
:102CA0007B681B69FB607B685B687A6892689A60E6
:102CB0007B689B687A6852685A60FB685B687A68D0
:102CC0009A4203D17B689A68FB685A607B6800224D
:102CD0001A61FB681B685A1EFB681A60FB681B6858
:102CE00018461437BD465DF8047B704780B584B044
:102CF00000AF786039607B68FB60FB68002B05D112
:102D000040F21B122A492B4824F094F902F03CFAB5
:102D1000FB681A68FB68DB6BF968096C01FB03F35D
:102D20001A44FB685A60FB6800229A63FB681A68C1
:102D3000FB689A60FB681A68FB68DB6B013BF9680B
:102D4000096C01FB03F31A44FB68DA60FB68FF229D
:102D500083F84420FB68FF2283F845203B68002B62
:102D600014D1FB681B69002B1AD0FB68103318467E
:102D700001F038FA0346002B12D00F4B4FF080526F
:102D80001A60BFF34F8FBFF36F8F09E0FB681033FA
:102D90001846FFF7F7FEFB6824331846FFF7F2FEEC
:102DA00002F020FA012318461037BD4680BD00BF4F
:102DB000CC960408E496040804ED00E080B58AB0DF
:102DC00002AFF860B9601346FB71FB68002B05D1B8
:102DD0004FF4C4721449154824F02CF9BB68002B39
:102DE00002D10023FB6104E0FB68BA6802FB03F335
:102DF000FB61FB695033184601F0F2FEB861BB6914
:102E0000002B0BD0BB6950337B61FA79BB6900930F
:102E100013467A69B968F86800F00AF8BB69184681
:102E20002037BD4680BD00BFCC960408E496040858
:102E300080B584B000AFF860B9607A60FB70BB68A1
:102E4000002B03D1BB69BA691A6002E0BB697A68DA
:102E50001A60BB69FA68DA63BB69BA681A6401214F
:102E6000B869FFF743FFBB69FA7883F84C2000BFCD
:102E70001037BD4680BD80B582B000AF78607B68FA
:102E8000002B0ED07B6800225A607B6800221A60FB
:102E90007B680022DA60002300220021786800F0BD
:102EA000B7F800BF0837BD4680BD80B586B000AF1B
:102EB0000346FB7101237B6100233B61FB791A46CA
:102EC00039697869FFF77AFFF860F868FFF7D3FF90
:102ED000FB6818461837BD4680BD000090B585B028
:102EE00000AF78607B68BB60BB68002B05D140F207
:102EF00041221249124824F09DF8BB685C6801F039
:102F0000F1FB03469C4211D1BB68DB685A1EBB68CB
:102F1000DA60BB68DB68002B05D1002300220021AA
:102F2000B86800F075F80123FB6001E00023FB6046
:102F3000FB6818461437BD4690BD00BFCC96040808
:102F4000E496040890B585B000AF786039607B687E
:102F5000BB60BB68002B05D14FF41E7213491448A7
:102F600024F068F8BB685C6801F0BCFB03469C4237
:102F700007D1BB68DB685A1CBB68DA600123FB60C1
:102F80000EE000233A680021B86800F0AFF9F8605D
:102F9000FB68002B04D0BB68DB685A1CBB68DA6096
:102FA000FB6818461437BD4690BD00BFCC96040898
:102FB000E496040880B584B000AF786039607B681F
:102FC000002B05D140F2BD220F49104824F032F801
:102FD0003A687B689A4205D940F2BE220A490B48FA
:102FE00024F028F8022200217868FFF7E7FEF86055
:102FF000FB68002B02D0FB683A689A63FB681846AE
:103000001037BD4680BD00BFCC960408E496040886
:1030100080B58AB000AFF860B9607A603B60002389
:103020007B62FB683B623B6A002B05D140F2D922F0
:103030006B496C4823F0FEFFBB68002B03D13B6A51
:103040001B6C002B01D1012300E00023002B05D1D4
:1030500040F2DA226249634823F0ECFF3B68022B1E
:1030600003D13B6ADB6B012B01D1012300E000237C
:10307000002B05D140F2DB2259495A4823F0DAFFF0
:1030800001F040FB0346002B02D17B68002B01D1ED
:10309000012300E00023002B05D140F2DE2250493D
:1030A000504823F0C7FF02F06FF83B6A9A6B3B6A07
:1030B000DB6B9A4202D33B68022B29D13A68B9688C
:1030C000386A00F03BFAF8613B6A5B6A002B10D06B
:1030D0003B6A2433184601F085F80346002B13D0D1
:1030E000414B4FF080521A60BFF34F8FBFF36F8F89
:1030F0000AE0FB69002B07D03B4B4FF080521A606F
:10310000BFF34F8FBFF36F8F02F06CF8012363E0C2
:103110007B68002B03D102F065F800235CE07B6A3A
:10312000002B06D107F11403184601F0BDF8012366
:103130007B6202F057F800F0D5FD02F025F83B6AFB
:1031400093F844305BB2B3F1FF3F03D13B6A0022F6
:1031500083F844203B6A93F845305BB2B3F1FF3FFC
:1031600003D13B6A002283F8452002F03BF83A1D68
:1031700007F114031146184601F0B8F80346002B76
:1031800024D1386A00F0D2FA0346002B18D03B6AEB
:1031900010337A681146184601F000F8386A00F0DA
:1031A0005DFA00F0ADFD0346002B7FF47CAF0E4BC3
:1031B0004FF080521A60BFF34F8FBFF36F8F72E7EB
:1031C000386A00F04BFA00F09BFD6CE7386A00F0BB
:1031D00045FA00F095FD002318462837BD4680BD0E
:1031E000CC960408E496040804ED00E080B58AB0AB
:1031F00000AF786039607B683B623B6A002B05D189
:1032000040F23C423749384823F014FF3B6A1B6CBC
:10321000002B05D04FF488623249334823F00AFF6F
:103220003B6A1B68002B03D13B6A5B68002B01D112
:10323000012300E00023002B05D14FF489622949C6
:10324000294823F0F7FE02F06FF8EFF311824FF0F8
:10325000300383F31188BFF36F8FBFF34F8F3A6151
:10326000FB603B69FB613B6A9B6BBB613B6ADB6B51
:10327000BA699A4229D23B6A93F84530FB75BB691B
:103280005A1C3B6A9A6397F91730B3F1FF3F12D18A
:103290003B6A5B6A002B15D03B6A2433184600F06A
:1032A000A1FF0346002B0DD03B68002B0AD03B68E2
:1032B00001221A6006E0FB7D0133DBB25AB23B6AA1
:1032C00083F8452001237B6201E000237B62FB69D8
:1032D000BB60BB6883F3118800BF7B6A1846283740
:1032E000BD4680BDCC960408E496040880B58AB03B
:1032F00000AFF860B9607A603B6000237B62FB68D6
:103300003B623B6A002B05D140F2DF4279497A48A3
:1033100023F090FEBB68002B03D13B6A1B6C002B93
:1033200001D1012300E00023002B05D14FF49C6262
:103330007049714823F07EFE01F0E4F90346002B4A
:1033400002D17B68002B01D1012300E00023002B78
:1033500005D140F2E3426749674823F06BFE01F074
:1033600013FF3B6A9B6BFB61FB69002B46D03B6AFA
:10337000DB68BB61B968386A00F04AF93B68002B2A
:1033800021D1FB695A1E3B6A9A633B6A1B68002B7A
:1033900004D101F087FB02463B6A5A603B6A1B6915
:1033A000002B27D03B6A1033184600F01BFF034662
:1033B000002B1FD0514B4FF080521A60BFF34F8F3C
:1033C000BFF36F8F16E03B6ABA69DA603B6A5B6AEB
:1033D000002B0FD03B6A2433184600F003FF03464E
:1033E000002B07D0454B4FF080521A60BFF34F8F30
:1033F000BFF36F8F01F0F6FE012377E07B68002BAF
:1034000003D101F0EFFE002370E07B6A002B06D1B0
:1034100007F11003184600F047FF01237B6201F01B
:10342000E1FE00F05FFC01F0AFFE3B6A93F8443030
:103430005BB2B3F1FF3F03D13B6A002283F8442023
:103440003B6A93F845305BB2B3F1FF3F03D13B6A6F
:10345000002283F8452001F0C5FE3A1D07F1100354
:103460001146184600F042FF0346002B31D1386A5E
:1034700000F046F90346002B25D03B6A1B68002B61
:1034800008D101F081FE3B6A5B68184601F058F9EB
:1034900001F0A8FE3B6A24337A681146184600F012
:1034A0007DFE386A00F0DAF800F02AFC0346002BB3
:1034B0007FF455AF114B4FF080521A60BFF34F8F1E
:1034C000BFF36F8F4BE7386A00F0C8F800F018FCC4
:1034D00045E7386A00F0C2F800F012FC386A00F0E4
:1034E0000FF90346002B3FF43AAF00231846283764
:1034F000BD4680BDCC960408E496040804ED00E0C7
:1035000080B584B000AF78607B68FB60FB68002BFF
:1035100005D14FF4CC620749074823F08BFDF868CA
:1035200000F01CF9F86801F013FC00BF1037BD462D
:1035300080BD00BFCC960408E496040880B586B030
:1035400000AFF860B9607A6000237B61FB689B6B19
:103550003B61FB681B6C002B0DD1FB681B68002BCB
:103560004DD1FB685B68184601F060F97861FB6833
:1035700000225A6043E07B68002B19D1FB689868F1
:10358000FB681B6C1A46B96823F044FCFB689A6818
:10359000FB681B6C1A44FB689A60FB689A68FB68BE
:1035A0005B689A422BD3FB681A68FB689A6026E036
:1035B000FB68D868FB681B6C1A46B96823F02AFCC4
:1035C000FB68DA68FB681B6C5B421A44FB68DA60D4
:1035D000FB68DA68FB681B689A4207D2FB685A6886
:1035E000FB681B6C5B421A44FB68DA607B68022B49
:1035F00005D13B69002B02D03B69013B3B613B6934
:103600005A1CFB689A637B6918461837BD4680BD13
:1036100080B582B000AF786039607B681B6C002B8E
:1036200018D07B68DA687B681B6C1A447B68DA60A8
:103630007B68DA687B685B689A4203D37B681A68A8
:103640007B68DA607B68D9687B681B6C1A463868CF
:1036500023F0E0FB00BF0837BD4680BD80B584B0D5
:1036600000AF786001F090FD7B6893F84530FB7304
:1036700011E07B685B6A002B12D07B68243318460C
:1036800000F0B0FD0346002B01D000F089FEFB7B6B
:10369000013BDBB2FB7397F90F30002BE9DC00E054
:1036A00000BF7B68FF2283F8452001F09BFD01F0FD
:1036B0006BFD7B6893F84430BB7311E07B681B693A
:1036C000002B12D07B681033184600F08BFD0346A8
:1036D000002B01D000F064FEBB7B013BDBB2BB736F
:1036E00097F90E30002BE9DC00E000BF7B68FF2279
:1036F00083F8442001F076FD00BF1037BD4680BD41
:1037000080B584B000AF786001F03EFD7B689B6BB4
:10371000002B02D10123FB6001E00023FB6001F0DC
:1037200061FDFB6818461037BD4680BD80B584B08A
:1037300000AF786001F028FD7B689A6B7B68DB6BDB
:103740009A4202D10123FB6001E00023FB6001F0FB
:1037500049FDFB6818461037BD4680BD80B485B072
:1037600000AF78600023FB6016E0104AFB68DB00C6
:1037700013445B687A689A420BD10C4AFB680021BB
:1037800042F83310094AFB68DB00134400225A60F8
:1037900006E0FB680133FB60FB68092BE5D900BF3D
:1037A00000BF1437BD465DF8047B7047603F0020C2
:1037B00080B58CB004AFF860B9603B601346FB8005
:1037C000FB889B00184601F00BFA78617B69002B9F
:1037D0000ED0602001F004FAF861FB69002B03D0E1
:1037E000FB697A691A6305E0786901F0B1FA01E0D2
:1037F0000023FB61FB69002B13D0FA88002303939D
:10380000FB690293FB6A0193BB6A00933B68B9684A
:10381000F86800F00FF8F86900F096F80123BB6132
:1038200002E04FF0FF33BB61BB6918462037BD464D
:1038300080BD000080B586B000AFF860B9607A60E6
:103840003B60BB6A186B7B689B001A46A52123F07E
:1038500009FBBB6A1A6B7B6803F18043013B9B0049
:1038600013443B613B6923F007033B613B6903F071
:103870000703002B05D040F22D323149314823F0A7
:10388000D9FBBB6A7A685A6400237B6112E0BA688C
:103890007B6913441978BA6A7B69134434330A4646
:1038A0001A70BA687B6913441B78002B06D07B69B9
:1038B00001337B617B690F2BE9D900E000BFBB6A54
:1038C000002283F843203B6A1F2B01D91F233B6250
:1038D000BB6A3A6ADA62BB6A3A6A1A65BB6A002254
:1038E0005A65BB6A04331846FFF76CF9BB6A183394
:1038F0001846FFF767F9BB6ABA6A1A613B6AC3F1F7
:103900002002BB6A9A61BB6ABA6A5A62BB6A002229
:103910009A65BB6A002283F85C203A68F9683869C6
:1039200001F032FB0246BB6A1A607B6A002B02D0B0
:103930007B6ABA6A1A6000BF1837BD4680BD00BFF7
:10394000F49604080C97040880B582B000AF786044
:1039500001F01AFC2C4B1B6801332B4A13602B4BD4
:103960001B68002B09D1294A7B681360264B1B6812
:10397000012B10D100F038FD0DE0254B1B68002B0A
:1039800009D1224B1B68DA6A7B68DB6A9A4202D84B
:103990001E4A7B6813601F4B1B6801331D4A13606E
:1039A0001C4B1A687B689A647B68DB6A01229A4028
:1039B000194B1B681343184A13607B68DA6A134675
:1039C0009B0013449B00154A1A447B680433194634
:1039D0001046FFF704F901F005FC0D4B1B68002BA6
:1039E0000ED00A4B1B68DA6A7B68DB6A9A4207D200
:1039F0000B4B4FF080521A60BFF34F8FBFF36F8FA6
:103A000000BF0837BD4680BDA4420020B03F002063
:103A1000B0420020C0420020AC420020B43F002051
:103A200004ED00E080B584B000AF786001F0ACFB3D
:103A30007B68002B02D1364B1B6800E07B68FB6083
:103A4000FB6804331846FFF727F90346002B15D10E
:103A5000FB68DA6A2F4913469B0013449B000B4412
:103A60001B68002B0AD1FB68DB6A012202FA03F310
:103A7000DA43294B1B681340274A1360FB689B6A93
:103A8000002B04D0FB6818331846FFF705F9234BC9
:103A90001B680133214A13601D4B1B68FA689A4268
:103AA0000BD1FB68043319461D48FFF798F81D4BEE
:103AB0001B6801331B4A136009E01B4B1B68013B69
:103AC000194A1360F86800F0D7FD00F0E5FD01F039
:103AD00089FB164B1B68002B16D00D4B1B68FA6830
:103AE0009A4211D1124B1B68002B05D04FF48D6206
:103AF0001049114823F09EFA104B4FF080521A6083
:103B0000BFF34F8FBFF36F8F00BF1037BD4680BD2F
:103B1000B03F0020B43F0020AC420020C042002053
:103B2000784200208C420020A4420020B0420020B5
:103B3000CC420020F49604080C97040804ED00E041
:103B400080B584B000AF78600023FB607B68002BF9
:103B500012D0114B1B68002B05D040F2D2420F4906
:103B60000F4823F067FA00F0BDF80021786800F0F4
:103B7000ADFF00F0C5F8F860FB68002B07D1094BDA
:103B80004FF080521A60BFF34F8FBFF36F8F00BFAB
:103B90001037BD4680BD00BFCC420020F49604081B
:103BA0000C97040804ED00E080B586B000AF7860A3
:103BB0007B683B613B69002B05D140F2FE421F4907
:103BC0001F4823F037FA1F4B1B683A699A4202D10B
:103BD0000023FB752DE001F0D7FA3B695B69FB60C0
:103BE00001F000FB184B1B68FA689A4204D0174B8F
:103BF0001B68FA689A4202D10223FB7519E0FB6840
:103C0000134A934209D13B699B6A002B02D10323DB
:103C1000FB750EE00223FB750BE0FB680D4A934237
:103C200002D0FB68002B02D10423FB7501E00123C5
:103C3000FB75FB7D18461837BD4680BDF496040819
:103C40000C970408B03F00205C4200206042002036
:103C5000904200207842002080B584B002AF194B1A
:103C60000193002300930023802217491748FFF790
:103C70009FFD78607B68012B16D14FF0300383F3F2
:103C80001188BFF36F8FBFF34F8F3B6000BF104BA6
:103C90004FF0FF321A600F4B01221A600E4B0022C8
:103CA0001A6001F0E9F909E07B68B3F1FF3F05D143
:103CB00040F2877209490A4823F0BCF900BF08376F
:103CC000BD4680BDC84200201C970408B9430208C5
:103CD000C4420020B0420020A8420020F49604080C
:103CE0000C97040880B400AF044B1B680133034AEF
:103CF000136000BFBD465DF8047B7047CC420020D6
:103D000080B584B000AF0023FB600023BB603F4B55
:103D10001B68002B05D140F2EB723D493D4823F072
:103D200089F901F031FA394B1B68013B374A1360BE
:103D3000364B1B68002B61D1374B1B68002B5DD0C5
:103D40002EE0364BDB68DB68FB60FB6818331846F7
:103D5000FEF7A2FFFB6804331846FEF79DFFFB68E1
:103D6000DB6A01229A402E4B1B6813432C4A1360D6
:103D7000FB68DA6A13469B0013449B00294A1A44E5
:103D8000FB68043319461046FEF729FFFB68DA6A20
:103D9000254B1B68DB6A9A4202D3244B01221A602E
:103DA0001E4B1B68002BCCD1FB68002B01D000F010
:103DB00073FC1F4B1B687B607B68002B10D000F0EE
:103DC000D9F80346002B02D0184B01221A607B68F9
:103DD000013B7B607B68002BF1D1154B00221A6000
:103DE000124B1B68002B09D00123BB60114B4FF015
:103DF00080521A60BFF34F8FBFF36F8F01F0F2F95B
:103E0000BB6818461037BD4680BD00BFCC420020BD
:103E1000F49604080C970408A44200206442002091
:103E2000AC420020B43F0020B03F0020B842002048
:103E3000B442002004ED00E080B483B000AF054B35
:103E40001B687B607B6818460C37BD465DF8047BB9
:103E5000704700BFA842002080B586B000AFF86070
:103E6000B9607A6000237B6120233B61FFF73AFF52
:103E70003A4B1B68BA689A4268D33B69013B3B6185
:103E80007A691346DB0013449B001A46FB689818B6
:103E90003A6913469B0013449B00314A13440122A4
:103EA000194600F07BFB02467B6913447B613B694A
:103EB000002BE2D17A691346DB0013449B001A46BB
:103EC000FB681344274A11680222184600F066FB7B
:103ED00002467B6913447B617A691346DB00134415
:103EE0009B001A46FB6813441F4A116802221846B9
:103EF00000F054FB02467B6913447B617A691346E8
:103F0000DB0013449B001A46FB6813440422174944
:103F1000184600F043FB02467B6913447B617A69D3
:103F20001346DB0013449B001A46FB68134403222C
:103F30000F49184600F032FB02467B6913447B614F
:103F40007B68002B02D07B6800221A60FFF7D8FE46
:103F50007B6918461837BD4680BD00BFA4420020CB
:103F6000B43F00205C4200206042002078420020E4
:103F70009042002080B586B000AF00237B614E4B9D
:103F80001B68002B40F088804C4B1B6801333B6161
:103F90004A4A3B6913603B69002B1BD1484B1B68A5
:103FA0001B68002B05D040F6DC124649464823F03A
:103FB00041F8434B1B68FB60444B1B68404A13604D
:103FC000424AFB681360424B1B680133404A13604E
:103FD00000F062FB3F4B1B683A699A424DD3384B65
:103FE0001B681B68002B01D1012300E00023002B7C
:103FF00004D0384B4FF0FF321A603EE0304B1B6864
:10400000DB68DB68BB60BB685B687B603A697B68C8
:104010009A4203D22F4A7B6813602EE0BB680433B8
:104020001846FEF739FEBB689B6A002B04D0BB68BC
:1040300018331846FEF730FEBB68DB6A01229A404F
:10404000254B1B681343244A1360BB68DA6A134686
:104050009B0013449B00214A1A44BB680433194651
:104060001046FEF7BCFDBB68DA6A1D4B1B68DB6AB5
:104070009A42B4D301237B61B1E7194B1B68DA6A1A
:10408000164913469B0013449B000B441B68012BED
:1040900007D901237B6104E0124B1B680133114AED
:1040A0001360114B1B68002B01D001237B617B69DE
:1040B00018461837BD4680BDCC420020A8420020DB
:1040C0005C420020F49604080C970408604200202B
:1040D000BC420020C4420020AC420020B43F00207B
:1040E000B03F0020B4420020B842002080B584B028
:1040F00000AF234B1B68002B03D0224B01221A6018
:104100003AE0204B00221A601F4B1B687B607B68E3
:10411000B3FA83F3FB70FB78C3F11F03FB601B4909
:10412000FA6813469B0013449B000B441B68002B4A
:1041300005D140F6F9221649164822F07BFFFA68AD
:1041400013469B0013449B00104A1344BB60BB689A
:104150005B685A68BB685A60BB685A68BB680833BA
:104160009A4204D1BB685B685A68BB685A60BB68F6
:104170005B68DB68084A136000BF1037BD4680BD2E
:10418000CC420020B8420020AC420020B43F0020C6
:10419000F49604080C970408B03F002080B582B064
:1041A00000AF786039607B68002B05D140F609329A
:1041B00009490A4822F03EFF094B1B68183319468B
:1041C0007868FEF730FD0121386800F07FFC00BF01
:1041D0000837BD4680BD00BFF49604080C9704085C
:1041E000B03F002080B584B000AF78607B68DB68AA
:1041F000DB68BB60BB68002B05D140F66432224906
:10420000224822F017FFBB6818331846FEF744FD1A
:104210001F4B1B68002B1CD1BB6804331846FEF7EC
:104220003BFDBB68DB6A01229A401A4B1B681343B3
:10423000184A1360BB68DA6A13469B0013449B005C
:10424000154A1A44BB68043319461046FEF7C7FCEA
:1042500005E0BB68183319461048FEF7C0FCBB6880
:10426000DA6A0F4B1B68DB6A9A4205D90123FB60AF
:104270000C4B01221A6001E00023FB60FB6818462A
:104280001037BD4680BD00BFF49604080C970408A3
:10429000CC420020AC420020B43F00206442002009
:1042A000B03F0020B842002080B582B000AF7860F7
:1042B0007B68002B05D140F6C4320849084822F03B
:1042C000B9FE084B1A687B681A60074B1A687B684E
:1042D0005A6000BF0837BD4680BD00BFF496040891
:1042E0000C970408BC420020A842002080B584B08E
:1042F00000AF786039607B68002B05D140F6CE3284
:104300002349244822F096FE3B68002B05D140F655
:10431000CF321F491F4822F08DFE00F035FF1E4BA3
:104320001B68BB603B681B68B3F1FF3F02D10023F1
:10433000FB6026E07B681A68184B1B689A4207D01E
:104340007B685B68BA689A4202D30123FB6018E07D
:104350007B685B68BA68D21A3B681B689A420ED2C7
:104360003B681A687B685968BB68CB1A1A443B687B
:104370001A607868FFF798FF0023FB6001E00123D3
:10438000FB6000F02FFFFB6818461037BD4680BD6C
:10439000F49604080C970408A8420020BC420020B0
:1043A00080B400AF034B01221A6000BFBD465DF828
:1043B000047B7047B842002080B582B000AF7860BF
:1043C00000F052F8064B1B68012BF9D9054B4FF052
:1043D00080521A60BFF34F8FBFF36F8FF0E700BFBB
:1043E000B43F002004ED00E080B582B000AF0023B0
:1043F0007B600CE07A6813469B0013449B00124AD2
:1044000013441846FEF7BEFB7B6801337B607B6874
:104410001F2BEFD90D48FEF7B5FB0D48FEF7B2FB99
:104420000C48FEF7AFFB0C48FEF7ACFB0B48FEF761
:10443000A9FB0B4B054A1A600A4B054A1A6000BFDC
:104440000837BD4680BD00BFB43F00203442002085
:104450004842002064420020784200209042002020
:104460005C4200206042002080B582B000AF28E0AE
:10447000FFF738FC174B1B68002B0CBF01230023F0
:10448000DBB27B60FFF73CFC7B68002B19D100F0AE
:104490007BFE104BDB68DB683B603B6804331846EF
:1044A000FEF7FAFB0C4B1B68013B0B4A13600B4BEE
:1044B0001B68013B094A136000F094FE386800F065
:1044C000DBF8064B1B68002BD2D100BF00BF0837BA
:1044D000BD4680BD78420020A44200208C420020CE
:1044E00080B586B000AFF860B9607A60FB70FB6899
:1044F000002B02D1284B1B6800E0FB687B61BB6886
:104500007A691A607B6903F13402BB685A607B697F
:10451000DA6ABB681A617B691A6BBB68DA617B690E
:104520009A6CBB689A60BB681B7B032B0AD1FFF7B0
:10453000D9FB7B699B6A002B02D0BB6802221A73ED
:10454000FFF7DEFB7B691A6DBB685A61BB6800220E
:104550009A61FB78052B03D0BB68FA781A7306E0E2
:10456000F868FFF721FB03461A46BB681A737B689D
:10457000002B09D07B691B6B184600F061F80346DD
:104580001A46BB681A8402E0BB6800221A8400BF86
:104590001837BD4680BD00BFB03F002080B58AB04F
:1045A00000AFF860B9601346FB7100237B62BB6803
:1045B0001B68002B3FD0BB683B623B6A5B685A6854
:1045C0003B6A5A603B6A5A683B6A08339A4204D194
:1045D0003B6A5B685A683B6A5A603B6A5B68DB68A7
:1045E000FB61BB68BB61BB695B685A68BB695A60A9
:1045F000BB695A68BB6908339A4204D1BB695B68DE
:104600005A68BB695A60BB695B68DB687B617A6A20
:104610001346DB0013449B001A46FB689918FB798C
:1046200001227869FFF75CFF7B6A01337B627A695C
:10463000FB699A42D5D17B6A18462837BD4680BDB2
:1046400080B485B000AF78600023FB6005E07B6834
:1046500001337B60FB680133FB607B681B78A52B13
:10466000F5D0FB689B08FB60FB689BB218461437CB
:10467000BD465DF8047B704780B582B000AF7860BE
:104680007B681B6B184600F063FB786800F060FBEA
:1046900000BF0837BD4680BD80B483B000AF0F4B6C
:1046A0001B681B68002B01D1012300E00023002BB5
:1046B00004D00B4B4FF0FF321A6008E0074B1B6829
:1046C000DB68DB687B607B685B68054A136000BF62
:1046D0000C37BD465DF8047B704700BF5C4200208C
:1046E000C442002080B483B000AF054B1B687B60E0
:1046F0007B6818460C37BD465DF8047B704700BFE9
:10470000B03F002080B483B000AF0B4B1B68002B80
:1047100002D101237B6008E0084B1B68002B02D10B
:1047200002237B6001E000237B607B6818460C3726
:10473000BD465DF8047B7047B0420020CC420020AB
:1047400080B584B000AF78607B68FB607B68002B2D
:1047500062D0FB68DA6A324B1B68DB6A9A425BD232
:10476000FB689B69002B06DB2D4B1B68DB6AC3F1E2
:104770002002FB689A61FB685969FB68DA6A134694
:104780009B0013449B00274A1344994201D1012303
:1047900000E00023002B3AD0FB6804331846FEF7F4
:1047A0007BFA0346002B15D1FB68DA6A1D491346D4
:1047B0009B0013449B000B441B68002B0AD1FB6831
:1047C000DB6A012202FA03F3DA43174B1B6813403A
:1047D000154A1360124B1B68DA6AFB68DA62FB68E1
:1047E000DB6A01229A40104B1B6813430E4A136088
:1047F000FB68DA6A13469B0013449B00094A1A447B
:10480000FB68043319461046FEF7E9F904E0044B4F
:104810001B68DA6AFB68DA6200BF1037BD4680BDEC
:10482000B03F0020B43F0020AC42002080B584B0EF
:1048300000AF78607B68BB600023FB607B68002B67
:1048400064D0354B1B68BA689A4205D040F6CA62FC
:104850003249334822F0EEFBBB685B6D002B05D17B
:1048600040F6CC622D492E4822F0E4FBBB685B6D1C
:104870005A1EBB685A65BB68DA6ABB681B6D9A42F0
:1048800044D0BB685B6D002B40D1BB680433184635
:10489000FEF702FA0346002B15D1BB68DA6A2149FC
:1048A00013469B0013449B000B441B68002B0AD14A
:1048B000BB68DB6A012202FA03F3DA431A4B1B6876
:1048C0001340194A1360BB681A6DBB68DA62BB6893
:1048D000DB6AC3F12002BB689A61BB68DB6A012214
:1048E0009A40114B1B6813430F4A1360BB68DA6A86
:1048F00013469B0013449B000A4A1A44BB680433C6
:1049000019461046FEF76BF90123FB60FB68184659
:104910001037BD4680BD00BFB03F0020F4960408AC
:104920000C970408B43F0020AC42002080B584B04E
:1049300000AF786039603968786822F0F7FC7868F1
:10494000FBF7A8FCF86007E07A68FB6813442022B4
:104950001A70FB680133FB60FB680E2BF4D97A6890
:10496000FB68134400221A707A68FB6813441846E7
:104970001037BD4680BD000090B589B002AF7860A9
:104980007B6800221A70454B1B68FB60434B1A681A
:104990001346DB0013449B00184600F021F93861F0
:1049A0003B69002B75D0FB68002219463869FFF778
:1049B00053FA0346FB600023BB6063E0BA6813460A
:1049C000DB0013449B001A463B6913441B7B013BED
:1049D000032B17D801A252F823F000BFED490208BB
:1049E000F3490208F9490208FF4902085223FB75FE
:1049F0000BE04223FB7508E05323FB7505E04423DD
:104A0000FB7502E00023FB7500BFBA681346DB00AC
:104A100013449B001A463B6913445B681946786847
:104A2000FFF784FF7860F97DBA681346DB00134412
:104A30009B001A463B6913441869BA681346DB00A9
:104A400013449B001A463B6913441B8C1C46BA68EE
:104A50001346DB0013449B001A463B6913449B68D2
:104A60000193009403460A460D49786822F008FC39
:104A70007868FBF70FFC02467B6813447B60BB68D9
:104A80000133BB60BA68FB689A4297D3386900F07B
:104A90005FF900BF1C37BD4690BD00BFA442002097
:104AA0002497040880B400AF074B1B68002B04D088
:104AB000054B1B685A6D01325A65034B1B6818463B
:104AC000BD465DF8047B7047B03F002080B584B0E0
:104AD00000AF78603960294B1B68FB60284B1B686E
:104AE00004331846FEF7D8F80346002B0BD1244BAD
:104AF0001B68DB6A012202FA03F3DA43214B1B68CD
:104B00001340204A13607B68B3F1FF3F0AD13B6832
:104B1000002B07D01A4B1B68043319461A48FEF7BE
:104B20005EF826E0FA687B681344BB60144B1B6890
:104B3000BA685A60BA68FB689A4209D2134B1A687D
:104B40000F4B1B68043319461046FEF76CF810E053
:104B50000F4B1A680A4B1B68043319461046FEF7C0
:104B600062F80C4B1B68BA689A4202D2094ABB68C9
:104B7000136000BF1037BD4680BD00BFA8420020B3
:104B8000B03F0020AC420020904200206042002054
:104B90005C420020C442002080B400AF034B1B687D
:104BA0001B6B1846BD465DF8047B7047B03F002084
:104BB00080B400AF034B1B685B6C1846BD465DF8C4
:104BC000047B7047B03F002080B400AF034B1B68EC
:104BD00034331846BD465DF8047B7047B03F002073
:104BE00080B586B000AF78600023FB60FFF77AF8ED
:104BF000504B1B68002B01D100F00AF94E4B1A688C
:104C00007B681340002B40F082807B68002B17D01C
:104C100008227B6813447B607B6803F00703002B4A
:104C20000ED07B6823F0070308337B607B6803F0BA
:104C30000703002B04D0BF224049414822F0FAF973
:104C40007B68002B63D03F4B1B687A689A425ED822
:104C50003D4B3B613C4B1B687B6104E07B693B61E6
:104C60007B691B687B617B695B687A689A4203D9C0
:104C70007B691B68002BF1D12E4B1B687A699A4225
:104C800045D03B691B6808221344FB607B691A68A6
:104C90003B691A607B695A687B68D21A08235B00FB
:104CA0009A4219D97A697B681344BB60BB6803F0E8
:104CB0000703002B04D0EC222049214822F0BAF946
:104CC0007B695A687B68D21ABB685A607B697A68CC
:104CD0005A60B86800F0FEF81A4B1A687B695B6886
:104CE000D31A184A1360174B1A68184B1B689A425C
:104CF00003D2144B1B68154A13607B695A680E4B2C
:104D00001B681A437B695A607B6900221A60FEF7B0
:104D1000F7FFFB6803F00703002B05D04FF49672F2
:104D20000649074822F086F9FB6818461837BD4641
:104D300080BD00BFD80A0120E40A0120349704088E
:104D400054970408DC0A0120D00A0120E00A01205F
:104D500080B584B000AF78607B68FB607B68002B17
:104D60003ED008235B42FA681344FB60FB68BB60DB
:104D7000BB685A681C4B1B681340002B05D14FF4CD
:104D8000A0721A491A4822F055F9BB681B68002B1B
:104D900005D040F241121549154822F04BF9BB6885
:104DA0005A68114B1B681340002B19D0BB681B6855
:104DB000002B15D1BB685A680B4B1B68DB431A40AC
:104DC000BB685A60FEF78EFFBB685A68094B1B68C8
:104DD0001344084A1360B86800F07CF8FEF790FFAF
:104DE00000BF1037BD4680BDE40A01203497040897
:104DF00054970408DC0A012080B400AF034B1B6801
:104E00001846BD465DF8047B704700BFDC0A0120F0
:104E100080B485B000AF4FF44843BB60274BFB60C4
:104E2000FB6803F00703002B0CD0FB680733FB6023
:104E3000FB6823F00703FB60BA68FB68D31A1F4ABC
:104E40001344BB60FB687B601D4A7B6813601C4B8E
:104E500000225A607B68BA681344FB600822FB6832
:104E60009B1AFB60FB6823F00703FB60FB68154A95
:104E70001360144B1B6800225A60124B1B680022FF
:104E80001A607B683B603B68FA68D21A3B685A60DC
:104E90000C4B1A683B681A603B685B680A4A1360EF
:104EA0003B685B68094A1360094B4FF000421A6087
:104EB00000BF1437BD465DF8047B7047D042002028
:104EC000D00A0120D80A0120E00A0120DC0A0120D2
:104ED000E40A012080B485B000AF7860284BFB6005
:104EE00002E0FB681B68FB60FB681B687A689A42FB
:104EF000F7D8FB68BB60FB685B68BA6813447A68E4
:104F00009A4208D1FB685A687B685B681A44FB6860
:104F10005A60FB687B607B68BB607B685B68BA68D3
:104F20001A44FB681B689A4218D1FB681A68154B33
:104F30001B689A420DD07B685A68FB681B685B68E7
:104F40001A447B685A60FB681B681A687B681A60A1
:104F500008E00C4B1A687B681A6003E0FB681A686B
:104F60007B681A60FA687B689A4202D0FB687A68AC
:104F70001A6000BF1437BD465DF8047B704700BF60
:104F8000D00A0120D80A012080B485B000AFF860B3
:104F9000B9607A60FB68043BFB60FB684FF080728D
:104FA0001A60FB68043BFB60BB6823F00102FB68EE
:104FB0001A60FB68043BFB600C4AFB681A60FB68E4
:104FC000143BFB607A68FB681A60FB68043BFB607B
:104FD000FB686FF002021A60FB68203BFB60FB6815
:104FE00018461437BD465DF8047B7047F14F020840
:104FF00080B582B000AF0B4B1B68B3F1FF3F05D00B
:1050000040F20B120849094822F014F84FF030031F
:1050100083F31188BFF36F8FBFF34F8F7B6000BFA7
:10502000FEE700BF14000020649704088897040876
:10503000074B19680868B0E8F04F80F30988BFF3A0
:105040006F8F4FF0000080F311887047AFF300803E
:10505000B03F002000BF00BF06480068006880F332
:10506000088862B661B6BFF34F8FBFF36F8F00DF62
:1050700000BF00BF08ED00E080B584B000AF374B43
:105080001B68374A934205D140F2411235493648F0
:1050900021F0D0FF314B1B68344A934205D14FF4C5
:1050A000A1723049304821F0C5FF314BFB60FB68ED
:1050B0001B78DBB2BB60FB68FF221A70FB681B78B1
:1050C000DBB2FB71FB79DBB203F03003DAB2294BC0
:1050D0001A70294B07221A6009E0274B1B68013B15
:1050E000254A1360FB79DBB25B00DBB2FB71FB7915
:1050F000DBB203F08003802BEFD01F4B1B681B0239
:105100001D4A13601C4B1B6803F4E0631A4A1360CA
:10511000BB68DAB2FB681A70184B1B68174A43F475
:1051200070031360154B1B68144A43F070431360FF
:1051300000F0D4F8124B00221A6000F0EBF8114B8B
:105140001B68104A43F040431360FFF785FFFFF7E9
:105150004FFF002318461037BD4680BD00ED00E02C
:1051600071C20F41649704088897040870C20F4108
:1051700000E400E0E80A0120EC0A012020ED00E054
:105180001400002034EF00E080B582B000AF4FF093
:10519000300383F31188BFF36F8FBFF34F8F7B60B2
:1051A00000BF0C4B1B6801330A4A1360094B1B6894
:1051B000012B0AD1084B1B68DBB2002B05D040F253
:1051C000A3120649064821F035FF00BF0837BD4647
:1051D00080BD00BF1400002004ED00E064970408C7
:1051E0008897040880B582B000AF0E4B1B68002B77
:1051F00005D14FF4D5720C490C4821F01BFF094B27
:105200001B68013B074A1360064B1B68002B05D146
:1052100000237B607B6883F3118800BF00BF0837E1
:10522000BD4680BD140000206497040888970408D8
:10523000EFF30980BFF36F8F154B1A681EF0100F44
:1052400008BF20ED108A20E9F04F10604DF8043DB2
:105250004FF0300080F31188BFF34F8FBFF36F8F93
:10526000FEF744FF4FF0000080F3118808BC196876
:105270000868B0E8F04F1EF0100F08BFB0EC108ABD
:1052800080F30988BFF36F8F704700BFAFF30080D2
:10529000B03F002000BF00BF80B582B000AF4FF02C
:1052A000300383F31188BFF36F8FBFF34F8F7B60A1
:1052B00000BFFEF75FFE0346002B03D0064B4FF006
:1052C00080521A6000233B603B6883F3118800BF63
:1052D00000BF0837BD4680BD04ED00E080B400AFDC
:1052E000084B1B68084AA2FB03239B09074A013BA2
:1052F0001360074B07221A6000BFBD465DF8047BB0
:10530000704700BF10000020D34D621014E000E091
:1053100010E000E0DFF80C00016841F4700101606A
:10532000704700BF88ED00E080B582B000AFEFF3BA
:1053300005837B607B680F2B0FD9114A7B68134470
:105340001B78FB700F4B1B78FA789A4205D240F21B
:10535000E6220D490D4821F06DFE0D4B1B6803F44C
:10536000E0620C4B1B689A4205D940F2F6220649CE
:10537000064821F05FFE00BF0837BD4680BD00BF74
:10538000F0E300E0E80A0120649704088897040825
:105390000CED00E0EC0A012080B483B000AF0346BE
:1053A000FB7197F90730002B04DC97F9073013F1F4
:1053B000100F01DA052305E097F907305B42044A34
:1053C00052F8233018460C37BD465DF8047B704711
:1053D000B009050880B582B000AF0346FB7197F9AC
:1053E000073013F10D0F09D013F10D0F0CDC13F181
:1053F0000F0F07D013F10E0F02D005E0084B0BE0A2
:10540000084B09E0084B07E097F90730002B02D062
:10541000064821F00FFE002318460837BD4680BD20
:10542000F4090508F5090508F60905089897040820
:1054300080B582B000AF786039603B68002B02D144
:10544000114821F0F7FD7B68104A934204D13B6874
:10545000F3221A70012312E07B680D4A934204D1B3
:105460003B68F2221A70012309E07B68094A9342E3
:1054700004D13B68F1221A70012300E00023184692
:105480000837BD4680BD00BFA8970408F409050889
:10549000F5090508F609050880B588B000AFF86081
:1054A000B9607A603B60BB68002B02D12F4821F0C5
:1054B000C1FDFB68002B02D12D4821F0BBFDFB682C
:1054C000FB61FB69002B03D178680AF01BFA4AE004
:1054D000FB695B68BA689A4202D0264821F0AAFDAF
:1054E000FB691033002B03D0FB691B69002B03D130
:1054F00078680AF007FA36E0062009F021FCB86166
:10550000BB69002B03D178680AF0FCF92BE0BB697A
:105510007A681A60BB697A685A603B68002B02D0CF
:105520003B681B6800E00023BA699360BB693A8D51
:105530009A817B681B89FB82FB691033B969184625
:105540001FF0B0FF0346002B03D0B86901F0A6FF9F
:1055500009E0FB699B6A002B05D0FB699B6AFA8A0C
:105560000021F86998472037BD4680BDB4970408EC
:10557000D8970408F897040880B588B000AFF860A1
:10558000B9607A60FB70BB68002B02D12E4821F015
:1055900051FDFB68002B02D12C4821F04BFD97F9FF
:1055A0000330002B02D02A4821F044FDFB687B61C8
:1055B0007B69002B02D16FF0050341E07B695B68DA
:1055C000BA689A4202D0234821F034FD7B69103337
:1055D000002B03D07B691B69002B0DD17B68002B4E
:1055E00008D07B681B891946B8680BF02FF97868DA
:1055F0000AF088F9002323E07B68002B05D07B6844
:10560000BB617B681B89FB8303E0134BBB610023F9
:10561000FB837B691033B96918461FF043FF0346CB
:10562000002B02D04FF0FF330AE07B699B6A002B0E
:1056300005D07B699B6AFA8B002178699847002323
:1056400018462037BD4680BD189804083C980408C9
:105650005C98040874980408F609050880B584B0BD
:1056600000AF786039607B68FB60FB68002B02D17B
:10567000294821F0DFFCFB685B78012B04D1012174
:10568000F86800F007FF16E0FB685B78042B12D186
:10569000FB685B6A002B0AD0FB685B6A5B7A002BB5
:1056A00005D0FB685B6A5A7A013AD2B25A7201217C
:1056B000F86800F005FBFB6893F8203003F0100356
:1056C000002B24D0FB685B68002B20D0FB685B6854
:1056D000B3F8643041F65E72934218D9FB685B6898
:1056E000B3F866302B2B12D8FB6893F8203023F0E8
:1056F0001003DAB2FB6883F82020FB689B6A002B5A
:1057000005D0FB689B6A00220221F86898470023B5
:1057100018461037BD4680BD9498040880B586B001
:1057200000AFF860B9601346FB80FB687B617B6962
:10573000002B02D1204821F07DFC7B69002B35D065
:105740007B695B78012B04D10121786900F0A2FE0E
:1057500007E07B695B78042B03D10121786900F0B5
:10576000AFFA7B695B68002B20D07B695B68B3F87C
:10577000643041F65E72934218D97B695B68B3F876
:1057800066302B2B12D87B6993F8203023F010035E
:10579000DAB27B6983F820207B699B6A002B05D0F5
:1057A0007B699B6AFA88022178699847002318462A
:1057B0001837BD4680BD00BF9498040880B588B0F6
:1057C00000AF78600B46FB707B68FB61FB69002BC8
:1057D00002D15A4821F02EFC1FF0E5FCB861FB69AC
:1057E00000225A60FB69FA781A72FB6993F820303C
:1057F00043F00103DAB2FB6983F82020FB695B7890
:10580000FB75FB6900225A70B8691FF0D3FCFB6975
:105810009B6A002B05D0FB699B6A00220421F86972
:105820009847FB699B6A002B05D0FB699B6A0022A5
:105830000021F8699847FB699B6A002B05D0FB693A
:105840009B6A00220221F869984797F903301846AD
:10585000FFF7C0FD3861FB691033002B09D0FB69ED
:105860001B69002B05D0FB691033396918461FF0FE
:1058700019FEFB691433002B09D0FB695B69002B0F
:1058800005D0FB691433396918461FF00BFEFB7D08
:10589000012B05D0FB7D042B02D0FB7D032B3FD1D8
:1058A000FB6993F8203003F00403002B14BF01239D
:1058B0000023DBB2FB60FB6993F8203023F0040384
:1058C000DAB2FB6983F82020FB68002B30D1FB693A
:1058D0005B6A002B02D11A4821F0ACFBFB7D042B44
:1058E00004D1FB695B6A00221A7103E0FB695B6A01
:1058F000FA781A71FB695B6A1B680C33BB60BB6882
:10590000002B03D0BB681B68002B02D10D4821F08F
:1059100091FBFB6900225A62B8681FF005FD07E0A1
:10592000FB695B6A002B04D0074821F083FB00E091
:1059300000BF00BF2037BD4680BD00BF949804085B
:10594000A4980408C0980408DC98040880B584B0C2
:1059500000AF78607B685B68FB607968F8680BF083
:10596000A9FE0A49F8680BF0B7FE0949F8680BF080
:10597000CDFE02220749F8680BF012FF0649F868CD
:105980000BF0DCFE00BF1037BD4680BD7955020824
:105990001D5702085D560208BD57020890B585B034
:1059A00000AF78600023FB737B681B685B68002B8B
:1059B00002D0294821F03EFB7B681B681B7803F06E
:1059C000F003102B22D0202B33D17B681C68FB7B8B
:1059D000184610F0E1FB034663607B681B685B6858
:1059E000002B2AD07B681B681B78222B04D17B6894
:1059F0001B685B6801221A747B681B6858687B68A7
:105A00001B681A46154910F05BFB16E07B681C68A2
:105A1000FB7B18460BF040FE034663607B681B6807
:105A20005B68002B0BD07B681B681846FFF78EFF66
:105A300005E07B68FA221A710AE000BF00E000BFAF
:105A40007B681B685B68002B02D17B68FF221A71A0
:105A50001437BD4690BD00BF209904089954020830
:105A600080B584B000AF78607B68FB60FB68002283
:105A70001A71FB681B685B68002B02D1F868FFF79E
:105A80008DFF00BF1037BD4680BD000080B586B0D9
:105A900000AF03463960FB710023FB74072009F057
:105AA0004FF9F860FB68002B01D1002350E0FB6840
:105AB00000221A72FB68FA791A70FB6800225A6099
:105AC000FB7903F0F003102B04D0202B05D10A231F
:105AD0007B6106E00A237B6103E01F4821F0AAFAFC
